:020000040800F2
:10000000C01E002001010008391200084F1000082E
:10001000351200087D0300088B1F00080000000057
:10002000000000000000000000000000391A000875
:10003000FD04000800000000E5170008A71B0008E9
:100040001B0100081B0100081B0100081B01000820
:100050001B0100081B0100081B0100081B01000810
:100060001B0100081B0100081B0100081B01000800
:100070001B0100081B0100081B0100081B010008F0
:100080001B0100081B0100081B0100081B010008E0
:100090001B0100081B0100081B010008B90500082E
:1000A0001B0100081B0100081B0100081B010008C0
:1000B000091C00081B0100081B0100081B010008A7
:1000C0001B0100081B0100081B0100081B010008A0
:1000D0001B010008691D0008AD1D00081B01000878
:1000E000010500081B0100081B010008DFF80CD007
:1000F00000F0EAF8004800473D210008C01E00203B
:100100000648804706480047FEE7FEE7FEE7FEE7B1
:10011000FEE7FEE7FEE7FEE7FEE7FEE7A91B0008B5
:10012000ED000008D2B201E000F8012B491EFBD21D
:1001300070470022F6E710B513460A4604461946F2
:10014000FFF7F0FF204610BD80EA010210B502F073
:100150000043400022D04A001FD0010E01EB126183
:10016000C0F35600C2F3560240F4000042F400020D
:10017000A0FB022000047F39140400D0401C50EA88
:10018000124001D44000491EC2B20C0604EBD0104C
:10019000401C4008802A02D003E0002010BD20F05F
:1001A0000100002900DA0020184310BD30B480EAB5
:1001B000010202F0004530F0004221F0004013D06F
:1001C00090B1C30DD40DC2F31601C0F31600E41AAA
:1001D00041F4000140F400027D34914201D3641CDB
:1001E00000E04900002C02DA30BC002070474FF4D8
:1001F00000000023914201D3891A034340084FEACB
:100200004101F7D151B1914202D14FF0004105E0D7
:1002100002D24FF0010101E06FF0010103EBC45085
:10022000284430BC00F019B896230022114600F093
:100230001DB820F00040C10DC0F3160040F40000CE
:100240007F2901DA00207047962903DCC1F196016D
:10025000C84070479639884070470029A8BF70474A
:10026000401C490008BF20F00100704710B4B0FAEC
:1002700080FC00FA0CF050EA010404BF10BC704787
:1002800049B1CCF1200421FA04F411FA0CF118BFA1
:10029000012121430843A3EB0C01CB1D4FEA006170
:1002A0004FEA102042BF002010BC704700EBC35043
:1002B00010440029A4BF10BC7047401C490008BF6F
:1002C00020F0010010BC7047064C074D06E0E068C6
:1002D00040F0010394E8070098471034AC42F6D38D
:1002E000FFF708FFA4360008C436000870B58C1864
:1002F00010F8015B15F0070301D110F8013B2A113A
:1003000006D110F8012B03E010F8016B01F8016B26
:100310005B1EF9D12B0705D40023521E0DD401F822
:10032000013BFAE710F8013BCB1A921C03E013F8EB
:10033000015B01F8015B521EF9D5A142D8D3002020
:1003400070BD000008B50121042001F05DFA4FF4F2
:100350008870ADF8000010208DF8030003208DF8A0
:1003600002006946044800F091FD4FF48071024894
:1003700000F06BFE08BD00000008014000BFFEE772
:1003800010B50020054908604FF4FA7001F08AFEAC
:1003900001200349C1F8A00110BD0000A0012142C5
:1003A0000000214230213D4A11703D49B0FBF1F17E
:1003B000C9B20A2291FBF2F302FB13113031374A22
:1003C00051703849B0FBF1F1C9B20A2291FBF2F346
:1003D00002FB13113031314A91703349B0FBF1F116
:1003E000C9B20A2291FBF2F302FB131130312B4AFE
:1003F000D1702E49B0FBF1F1C9B20A2291FBF2F3A0
:1004000002FB13113031254A11712949B0FBF1F17A
:10041000C9B20A2291FBF2F302FB131130311F4AD9
:10042000517142F21071B0FBF1F1C9B20A2291FB95
:10043000F2F302FB13113031184A91714FF47A71C3
:10044000B0FBF1F1C9B20A2291FBF2F302FB1311E6
:100450003031124AD1716421B0FBF1F1C9B20A22E4
:1004600091FBF2F302FB131130310C4A11720A2195
:10047000B0FBF1F1C9B20A2291FBF2F302FB1311B6
:100480003031064A5172C1B20A2291FBF2F302FBEB
:1004900013113031014A917270470000EC0F0020B7
:1004A00000CA9A3B00E1F5058096980040420F0093
:1004B000A08601006421B0FBF1F1C9B20A2291FBD0
:1004C000F2F302FB131130310B4A11700A21B0FB19
:1004D000F1F1C9B20A2291FBF2F302FB13113031A0
:1004E000054A51700A21B0FBF1F201FB12013031D3
:1004F000014A917070470000CA0F00207047000049
:1005000010B54FF4006000F0A5F8B8B10A2001F072
:10051000C9FD4FF40061244800F08CFD50B900BFC4
:100520004FF40061204800F085FD0028F8D001203C
:100530001E4908704FF4006000F086F84FF4005038
:1005400000F088F8A0B10A2001F0ACFD4FF4005192
:10055000174800F06FFD38B900BF4FF40051144840
:1005600000F068FD0028F8D04FF4005000F06CF85F
:100570004FF4004000F06EF8A0B10A2001F092FDA7
:100580004FF400410B4800F055FD38B900BF4FF45F
:100590000041084800F04EFD0028F8D04FF400401C
:1005A00000F052F810BD0000000C0140590000207E
:1005B000001001400008014010B5802000F04AF80A
:1005C00088B10A2001F06EFD80211D4800F032FD47
:1005D00030B900BF80211A4800F02CFD0028F9D066
:1005E000802000F031F8202000F034F888B10A2093
:1005F00001F058FD2021134800F01CFD30B900BF68
:100600002021104800F016FD0028F9D0202000F02D
:100610001BF8402000F01EF888B10A2001F042FDCE
:100620004021074800F006FD30B900BF40210448D2
:1006300000F000FD0028F9D0402000F005F810BDC2
:10064000000C0140000801400149086070470000AB
:1006500014040140014600200022074B1B6803EAF6
:100660000102054B14331B680B4013B10AB1012082
:1006700000E00020704700000004014070B505460E
:1006800035B1012D0FD0022D18D0032D2CD120E033
:10069000002000F0FDF9C0F30B04012000F0F8F990
:1006A00040EA044421E0002000F0F2F9C0F30B041A
:1006B000012000F0EDF940EA044416E0042000F0C7
:1006C000E7F9C0F30B04052000F0E2F940EA044426
:1006D0000BE0062000F0DCF9C0F30B04072000F06B
:1006E000D7F940EA044400E000BF00BF24F07044A2
:1006F000204670BD10B500F05AF800F085F87E2055
:1007000000F0C6F9044645F2494084424BD1FB2231
:100710003421082001F006FAFB223421092001F0DF
:1007200001FAFB2234210A2001F0FCF91B220021EE
:10073000102001F0F7F91B220021112001F0F2F93D
:100740001B220021122001F0EDF9022220211420A9
:1007500001F0E8F902222021152001F0E3F902223C
:100760002021162001F0DEF9002278211E2001F060
:10077000D9F9002278211F2001F0D4F90022782134
:10078000202001F0CFF900221146192001F0CAF90A
:100790000D22C2211B2001F0C5F9012214211A20CB
:1007A00001F0C0F901E0012010BD0020FCE7704716
:1007B00010B500200E4908600E48006820F0F000D7
:1007C0000C4908600846006840F0300008600020CE
:1007D0000949C1F8A40100F011F80120044908609A
:1007E00000F00CF800200449C1F8A00110BD000081
:1007F000A0812142040C01400080214210B502205A
:1008000001F076FC10BD000008B50121082000F0C1
:10081000FBFF4FF48070ADF8000010208DF803004E
:1008200003208DF802006946164800F02FFB4FF4B4
:100830008071144800F009FC4FF40070ADF800001E
:1008400010208DF8030003208DF8020069460D4842
:1008500000F01CFB4FF400710A4800F0F6FB032087
:10086000ADF8000010208DF8030003208DF8020081
:100870006946044800F00AFB0321024800F0E3FB4C
:1008800008BD0000000C014010B500200E490860B2
:100890000E48006820F0F0000C4908600846006827
:1008A00040F03000086001200949C1F8A401FFF7B9
:1008B000A5FF012004490860FFF7A0FF00200449BC
:1008C000C1F8A00110BD0000A0812142040C01402C
:1008D0000080214270B5054600241648006820F0CB
:1008E000F000144908600846006840F08000086085
:1008F000002614E0002010490860FFF77FFF012068
:100900000E49C1F8A0016006040E0B487C3800684F
:1009100008B1601CC4B2FFF771FF701CC6B2082E8C
:10092000E8DB15B9FFF7B0FF01E0FFF741FF204614
:1009300070BD0000040C0140A081214200802142D2
:1009400070B504461248006820F0F00010490860B5
:100950000846006840F03000086000200D4908603B
:10096000002512E0E0090B49091D08606006040E2D
:1009700001200949C1F8A001FFF740FF0020054907
:100980000860FFF73BFF681CC5B2082DEADB70BDAD
:10099000040C0140A08121420080214210B50E4884
:1009A000006820F0F0000C4908600846006840F03C
:1009B000300008600120094908600949C1F8A00118
:1009C000FFF71CFF002005490860FFF717FF002014
:1009D0000349C1F8A00110BD040C0140A4812142CB
:1009E0000080214210B50E48006820F0F0000C494C
:1009F00008600846006840F030000860002009499F
:100A000008600949C1F8A401FFF7F8FE0120054973
:100A100008600549C1F8A401FFF7F0FE10BD000011
:100A2000040C0140A08121420080214210B5002425
:100A30001448006820F0F000124908600846006879
:100A400040F08000086001200F490860FFF7D6FEE3
:100A500001200E49C1F8A001FFF7D0FE07E0601C9D
:100A6000C4B2FA2C03DDFFF7BDFF012010BD06481C
:100A7000803800680028F2D10349091F086000BFD0
:100A8000F4E70000040C0140A481214200802142CF
:100A900070B50546FFF782FF5420FFF751FFFFF7BF
:100AA000C5FF2846FFF74CFFFFF7C0FFFFF776FFB3
:100AB0005520FFF745FFFFF7B9FF0120FFF70AFFB9
:100AC00004020020FFF706FF0443FFF78BFF2046D8
:100AD00070BD00001CB50024002001900090294842
:100AE00000F01DFF31282CD000BF10E0264A02EB99
:100AF0008401264A02EB8400022200F013FF012346
:100B000022460821602000F0C5FC601CC4B2AA2C5B
:100B1000ECDB01240DE0601E1B4951F8200051F868
:100B2000241008444108601E194A42F82010601C35
:100B3000C4B2AA2CEFDB01221649124800F0F2FEE3
:100B40001FE0022201A9114800F0D8FE4FF47A708C
:100B500001F0A8FA012412E00C4901EB8400022202
:100B6000694600F0CBFEDDE9001008444108601E34
:100B7000074A42F8201000980190601CC4B2AA2CC9
:100B8000EADB1CBDFEF20008F833000800F00008A4
:100B900070110020A036000810B500F01BF93420B9
:100BA00000F0A8F8024800F0ABF800F0E9F810BD3A
:100BB00000F000082DE9F04700240026002500275A
:100BC000A046A14600BF012441E0434850F824005C
:100BD00000283AD02746681CC6B233E03E4951F897
:100BE00027103D4A52F82520881AFFF71DFB804642
:100BF0003A4951F82710394A52F82520881AFFF748
:100C000013FB814649464046FFF7D0FA80463349F8
:100C100051F82610314A52F82520881AFFF704FBB4
:100C2000814649464046FFF78FFA80464046FFF727
:100C300000FB294951F825100844274941F82600AE
:100C4000701CC6B2BE42C9DB3D46601CC4B2AA2CB1
:100C5000BBDB00F0BFF8224800F052F800F090F83B
:100C6000002410E01C4A02EB84011D4A02EB8400C0
:100C7000022200F057FE012322460821602000F0E6
:100C800009FC601CC4B2AA2CECDB012215491648F1
:100C900000F048FE01240DE0601E0F4951F82000CD
:100CA00051F8241008444108601E104A42F82010F0
:100CB000601CC4B2AA2CEFDB002408E00C48005DE5
:100CC00018B90020044941F82400601CC4B2AA2CC1
:100CD000F4DBBDE8F087000018140020F8330008AA
:100CE00000F00008A0360008FEF200087011002095
:100CF000C41000200149C860704700000020024075
:100D000030B5044604254FF4302000F06FF8054656
:100D1000042D17D10C48006940F002000A4908610F
:100D200008464461006940F0400008614FF43020FB
:100D300000F05CF805460448006941F6FD71084082
:100D400001490861284630BD0020024004200B49BB
:100D5000C96801F0010109B101200EE00749C96825
:100D600001F0040109B1022007E00449C96801F05B
:100D7000100109B1032000E0042070470020024068
:100D80000348006940F08000014908617047000095
:100D90000020024070B504460D460426F00200F023
:100DA00025F80646042E11D10948006940F00100DB
:100DB000074908612580F00200F018F8064604484B
:100DC000006941F6FE71084001490861304670BD76
:100DD00000200240024803494860034848607047C9
:100DE0002301674500200240AB89EFCD00B50246E4
:100DF0000423FFF7ABFF034603E0FFF7A7FF03461B
:100E0000521E012B01D1002AF7D102B90523184641
:100E100000BD2DE9F04186B08046002418216846C7
:100E2000FFF787F900250026002700BF0EE04046A7
:100E3000FFF724FC40F2FF3108436FF309004DF83F
:100E40002400012001F02EF9601CC4B2052CEEDD57
:100E5000009D009E009F012410E05DF82400B04238
:100E600001D95DF824605DF82400B84201D25DF834
:100E700024705DF824000544601CC4B2052CECDD30
:100E8000A81BC01B800806B0BDE8F0812DE9F04129
:100E9000024600250026002000230024002791F8A8
:100EA00003C00CF00F0591F803C00CF0100CBCF15E
:100EB000000F03D091F802C04CEA050591F800C07C
:100EC000BCF1000F31D0146800202BE04FF0010C72
:100ED0000CFA00F3B1F800C00CEA03069E4220D1E0
:100EE00083004FF00F0C0CFA03F7BC4305FA03FC28
:100EF0004CEA040491F803C0BCF1280F06D14FF06E
:100F0000010C0CFA00FCC2F814C00AE091F803C00E
:100F1000BCF1480F05D14FF0010C0CFA00FCC2F8EF
:100F200010C0401C0828D1D31460B1F800C0BCF137
:100F3000FF0F34DD546800202EE000F1080C4FF064
:100F4000010808FA0CF3B1F800C00CEA03069E424F
:100F500021D183004FF00F0C0CFA03F7BC4305FAC4
:100F600003FC4CEA040491F803C0BCF1280F05D13E
:100F700000F1080C08FA0CF8C2F8148091F803C0CC
:100F8000BCF1480F07D100F1080C4FF0010808FA36
:100F90000CF8C2F81080401C0828CED35460BDE87D
:100FA000F0810000F0B50A4600230024002100254E
:100FB00000F00046B6F1004F02D11D4EF16901E08C
:100FC0001B4E7168C0F3034583B200F44016B6F5BA
:100FD000401F08D121F07061154E766826F07066CA
:100FE000134F7E6012E000F48016B6F5801F06D124
:100FF000032606FA05F4A14341F0706106E0460DB0
:10100000360103FA06F6B14341F0706122B1460D94
:10101000360103FA06F6314300F00046B6F1004F00
:1010200002D1034EF16101E0014E7160F0BD00009C
:10103000000001400246002093680B400BB10120E4
:1010400000E000207047416170470161704700BFB8
:10105000FEE7000010B501200A49086001F048F8D9
:1010600001200949C1F8A00101F042F8002005491A
:101070000860012001F03CF800200349C1F8A001FC
:1010800010BD0000A40122420000224210B5002041
:101090000A490860012001F02BF800200849C1F836
:1010A000A001012001F024F801200449086001F0AA
:1010B0001FF801200249C1F8A00110BDA40122427D
:1010C0000000224270B50546002410480068A8427E
:1010D00001D9012070BD01240EE0601E0B4951F8BA
:1010E0002000A84206D8084650F82400A84201D99A
:1010F000601CEFE7601CC4B2A92CEEDB04A107481A
:1011000000F054FF40F2E730E4E7000070110020E7
:1011100041373A30303032310000000000440040A6
:1011200008B501211C2000F06FFB00211248FFF7D9
:1011300039FF48F22000ADF8000048208DF8030088
:1011400069460E48FFF7A2FE4FF4C750ADF8000005
:1011500048208DF8030069460948FFF797FE4FF4D1
:101160000050ADF8000048208DF80300694605489E
:10117000FFF78CFE08BD00000002300000080140AF
:10118000000C01400010014010B54FF40051194807
:10119000FFF750FF08B9012010BD4FF40041164879
:1011A000FFF748FF08B90220F6E720211248FFF7B1
:1011B00041FF08B90320EFE780211048FFF73AFF0D
:1011C00020B9C82000F06EFF0420E5E740210B485D
:1011D000FFF730FF20B9C82000F064FF0520DBE7EF
:1011E0004FF400610548FFF725FF08B90620D3E753
:1011F0000020D1E70010014000080140000C014030
:1012000008B50121202000F0FFFA10208DF803001E
:1012100003208DF802000420ADF800006946044860
:10122000FFF734FE04210248FFF70FFF08BD00005E
:101230000014014000BFFEE77047000070B50021B8
:1012400000230F22C47804B3154C246804F4E0642E
:10125000C4F5E064210AC1F10403CA40447804FAE9
:1012600003F184781440214309010E4C0678A155FE
:10127000047804F01F050124AC4005786D11AD0021
:1012800005F1E025C5F8004109E0047804F01F05E8
:101290000124AC40044D0678761145F8264070BD17
:1012A0000CED00E000E400E080E100E002490143D1
:1012B000024A1160704700000000FA050CED00E0E2
:1012C00070B50646002415E004F1B001C8B200F084
:1012D00007FA012000F004FA102000F001FA0025BE
:1012E00004E0304600F00CFA681CC5B2802DF8DB33
:1012F000601CC4B2082CE7DB70BD000008B50121FA
:10130000102000F081FA4FF44070ADF8000010207A
:101310008DF8030003208DF8020069460448FFF7AA
:10132000B5FD4FF440710248FFF78FFE08BD000085
:101330000010014010B500221146202000F080F876
:1013400001220021302000F07BF802220021402001
:1013500000F076F803220021502000F071F80A22F4
:101360000221002000F06CF80B220221102000F076
:1013700067F8022324A21946202000F03BF902233B
:1013800022A21946482000F035F9012202215020FE
:1013900000F056F802231DA21946602000F02AF939
:1013A00002231AA21946682000F024F9022204211F
:1013B000002000F045F803220421102000F040F83E
:1013C000022311A20421202000F014F902230FA20D
:1013D0000421482000F00EF901220421502000F0E1
:1013E0002FF8022309A20421602000F003F9022350
:1013F00006A20421682000F0FDF8022304A20621C1
:10140000184600F0F7F810BD3A2000002000000058
:101410004348303A0000000070B504460D4605F11F
:10142000B001C8B200F05CF9102141EA141000F0DC
:1014300057F904F00F0141F0010000F051F970BDBF
:101440002DE9F04180460E46174600247D013146C5
:101450004046FFF7E1FF00BF06E00D49485D00F0A0
:101460004FF96D1C601CC4B2102CF6DB701CC1B2AD
:101470004046FFF7D1FF002406E00549485D00F033
:101480003FF96D1C601CC4B2102CF6DBBDE8F08186
:101490004A0C00202DE9FF47064688461546994626
:1014A0000024ADB94B462A464146304600F042F88A
:1014B00001240AE0062101FB0461C8B24B466FF02B
:1014C0000F02414600F036F8641C052CF2DB2EE0DA
:1014D0000BE00A2095FBF0F100FB11504DF82400C1
:1014E0000A2095FBF0F085B2641C0A2DF1DA4DF864
:1014F00024502746002418E0381B0AD5062101FB9A
:101500000461C8B24B466FF00F02414600F012F87A
:101510000AE0391B5DF82120062101FB0461C8B2F5
:101520004B46414600F006F8641C052CE4DBBDE8A0
:10153000FF8700002DE9F04706460F469046994682
:1015400000250024B9F1010F03D0B9F1020F49D1F0
:101550001AE008F11000C5B27E2E02DD0026781CCC
:10156000C7B239463046FFF757FF002409E005EBC4
:1015700045011E4A02EB4101085D00F0C1F8601C04
:10158000C4B2062CF3DB2DE008F11000C5B2782EB2
:1015900002DD0026781CC7B239463046FFF73CFF13
:1015A000002407E004EB0511114A505C00F0A8F894
:1015B000601CC4B2082CF5DB781CC1B23046FFF7C2
:1015C0002BFF002408E004EB05110831084A505CA9
:1015D00000F096F8601CC4B2082CF4DB06F1080099
:1015E000C6B200BF00BFBDE8F0870000D82B0008DE
:1015F000062E00082DE9F0470646894617469A460A
:101600004FF0000800240025BAF1010F03D0BAF111
:10161000020F5ED125E020E0785D203800F0FF0861
:101620007E2E04DD002609F1010000F0FF09494685
:101630003046FFF7F1FE002409E008EB4801264A96
:1016400002EB4101085D00F05BF8601CC4B2062C9F
:10165000F3DBB01DC6B2681CC5B2785D0028DBD1D3
:1016600037E032E0785D203800F0FF08782E04DDA6
:10167000002609F1010000F0FF0949463046FFF756
:10168000CBFE002407E004EB0811144A505C00F084
:1016900037F8601CC4B2082CF5DB09F10100C1B2B7
:1016A0003046FFF7B9FE002408E004EB08110831CA
:1016B0000A4A505C00F024F8601CC4B2082CF4DB29
:1016C00006F10800C6B2681CC5B2785D0028C9D111
:1016D00000BF00BFBDE8F087D82B0008062E000829
:1016E00010B50446FFF7B6FC782000F075FC00202A
:1016F00000F072FC204600F06FFCFFF7C7FC10BD45
:1017000010B50446FFF7A6FC782000F065FC4020E9
:1017100000F062FC204600F05FFCFFF7B7FC10BD54
:1017200010B5FFF7EBFD642000F0BCFCAE20FFF726
:10173000D7FF0020FFF7D4FF1020FFF7D1FF402094
:10174000FFF7CEFF8120FFF7CBFFC820FFF7C8FFD0
:10175000A120FFF7C5FFC820FFF7C2FFA620FFF7B3
:10176000BFFFA820FFF7BCFF3F20FFF7B9FFD32042
:10177000FFF7B6FF0020FFF7B3FFD520FFF7B0FF5C
:101780008020FFF7ADFFD920FFF7AAFFF120FFF778
:10179000A7FFDA20FFF7A4FF1220FFF7A1FFDB204D
:1017A000FFF79EFF4020FFF79BFF2020FFF798FFE9
:1017B0000220FFF795FF8D20FFF792FF1420FFF71F
:1017C0008FFFA420FFF78CFFA620FFF789FFAF2033
:1017D000FFF786FF0020FFF773FD00210846FFF7A3
:1017E0001BFE10BD7047000029B1064AD2690243B2
:1017F000044BDA6104E0034AD2698243014BDA61A7
:10180000704700000010024029B1064A9269024365
:10181000044B9A6104E0034A92698243014B9A6146
:10182000704700000010024030B500210022002463
:1018300000232D4D6D6805F00C0121B1042905D060
:10184000082923D105E0294D056022E0274D0560D8
:101850001FE0254D6D6805F47012234D6D6805F489
:101860008034022505EB92421CB9214D5543056099
:101870000BE01D4D6D6805F400351DB11C4D554341
:10188000056002E0194D5543056002E0174D056003
:1018900000BF00BF144D6D6805F0F0010909154D3A
:1018A0006B5C0568DD4045600F4D6D6805F4E061D7
:1018B000090A104D6B5C4568DD4085600A4D6D6816
:1018C00005F46051C90A0B4D6B5C4568DD40C5608D
:1018D000054D6D6805F44041890B074D6B5CC5688B
:1018E000B5FBF3F5056130BD0010024000127A002F
:1018F00000093D00440000205400002030B503469C
:101900000C461546002207E0184600F008F824F8B7
:1019100012009B1C501C82B2AA42F5DB30BD01466E
:10192000088870472DE9F05F80468A461746B8F16F
:10193000006F02D33348804501D3BDE8F09FFFF725
:1019400049FAA8F1006B4FEA9B25CBF34809C9F58A
:101950000074A74200DC3C464DE04FF0006101EB13
:1019600085208A142849FFF7C9FF00260BE009EB00
:101970000600254931F810004FF6FF71884200D06B
:1019800003E0701C86B2A642F1DB00BFA6421BDA60
:101990004FF0006101EB8520FFF7B2F9002608E067
:1019A0003AF8160006EB0901174A22F81100701CDC
:1019B00086B2A642F4DB4FF0006101EB85208A1469
:1019C000114900F023F804E022465146404600F059
:1019D0001DF8A74200D10FE06D1C4FF000090AEB83
:1019E000440AA044381B87B2B7F5007F02DD4FF4EC
:1019F000007400E03C46B0E700BFFFF7C1F900BF4C
:101A00009BE7000000000108C01600202DE9F0410E
:101A100005460E4617464FF00408002408E036F845
:101A200014102846FFF7B6F98046AD1C601C84B23E
:101A3000BC42F4DBBDE8F081704710B500F002F85D
:101A400010BD00000CB500200190009033480068E4
:101A500040F480303149086000BF3048006800F42D
:101A6000003000900198401C0190009818B901982E
:101A7000B0F5A06FF1D12948006800F4003010B132
:101A80000120009001E0002000900098012843D13F
:101A90002348006840F010002149086008460068AB
:101AA00020F0030008600846006840F0020008606B
:101AB0001A48406819494860084640684860084626
:101AC000406840F4806048600846406820F47C101C
:101AD00048600846406840F4E810486008460068DE
:101AE00040F08070086000BF0C48006800F0007093
:101AF0000028F9D00948406820F0030007494860F1
:101B00000846406840F00200486000BF0348406853
:101B100000F00C000828F9D10CBD000000100240B4
:101B20000020024070B506460C461546FEF736FF0B
:101B30005420FEF705FFFEF779FF18B1FEF752FFBC
:101B4000012070BD3046FEF7FBFEFEF76FFF20461A
:101B5000FEF7F6FEFEF76AFF18B1FEF743FF01201D
:101B6000EFE72846FEF7ECFEFEF760FF18B1FEF740
:101B700039FF0120E5E7FEF735FF0020E1E7042803
:101B800008D14FF0E021096941F004014FF0E02253
:101B9000116107E04FF0E021096921F004014FF0E5
:101BA000E02211617047704710B51348006840F09B
:101BB00001001149086008464068104908400E4974
:101BC0004860084600680E4908400B49086008460E
:101BD000006820F4802008600846406820F4FE0079
:101BE00048604FF41F008860FFF727FF4FF0006048
:101BF0000449086010BD0000001002400000FFF81A
:101C0000FFFFF6FE08ED00E04FF08040008A00F094
:101C1000010040B108480078012804D10748006855
:101C2000401C064908604FF08040008A20F0010007
:101C30004FF08041088270471400002018000020F7
:101C40007FB505460C4601210846FFF7CDFDADF8EE
:101C50000850ADF804400020ADF80A00ADF80600C9
:101C600001A94FF0804000F02DF8012211469007A5
:101C700000F01FF81C208DF8000000208DF80100F6
:101C80008DF8020001208DF803006846FFF7D6FAB0
:101C90000121880700F001F87FBD21B1028842F0E0
:101CA0000102028004E002884FF6FE731A400280AF
:101CB00070471AB183890B43838102E083898B4388
:101CC00083817047002202881D4B98420ED01D4B25
:101CD00098420BD0B0F1804F08D01B4B984205D0F2
:101CE0001A4B984202D01A4B984204D14FF68F7388
:101CF0001A404B881A43174B984207D0164B98420C
:101D000004D04FF6FF431A40CB881A4302808B88D9
:101D100083850B8803850A4B98420BD0094B984268
:101D200008D00E4B984205D00D4B984202D00D4B77
:101D3000984201D10B7A0386012383827047000009
:101D4000002C014000340140000400400008004025
:101D5000000C004000100040001400400040014012
:101D6000004401400048014010B540F225510C48A4
:101D700000F047F890B10A4800F0FEF8C4B20948F4
:101D800009490988445408480088401C06490880CD
:101D900008460088C72801DD0020088010BD00002B
:101DA00000380140FA0F0020D40F002010B540F297
:101DB0002551064800F025F838B1044800F0DCF859
:101DC000C4B22146014800F0DCF810BD00440040D8
:101DD00021B1828942F40052828104E082894DF669
:101DE000FF731A408281704702460020B1F5007FE0
:101DF00000D100BF13880B400BB1012000E0002090
:101E0000704770B50246002400230025002040F6EC
:101E10006A16B14200D100BFC1F3421501F01F03A1
:101E2000012606FA03F3012D02D19689334006E01C
:101E3000022D02D1168A334001E0968A33400C12FB
:101E4000012606FA04F41688344013B10CB10120BF
:101E500000E0002070BDF0B50346002400260025F8
:101E6000002040F66A17B94200D100BF1846C1F3FE
:101E7000421401F01F06012707FA06F5012C01D1D3
:101E80000C3004E0022C01D1103000E014301AB103
:101E900007682F43076002E00768AF430760F0BDA3
:101EA0002DE9F04786B005460E460024A24600BF45
:101EB000A1460027B08900B100BF2F462C8A4CF6FE
:101EC000FF700440F08804432C82AC894EF6F31076
:101ED0000440B08831890843718908430443AC81C8
:101EE000AC8A4FF6FF400440B0890443AC8201A89D
:101EF000FFF79AFC1F48874202D1DDF810A001E0ED
:101F0000DDF80CA0A88900F4004040B10AEBCA003B
:101F100000EB0A1031684900B0FBF1F807E00AEB6A
:101F2000CA0000EB0A1031688900B0FBF1F86420A8
:101F3000B8FBF0F004012009642101FB1089A88995
:101F400000F4004040B1322000EBC900B0FBF1F0DA
:101F500000F00700044308E0322000EB0910642180
:101F6000B0FBF1F000F00F0004432C8106B0BDE897
:101F7000F08700000038014001468888C0F308005F
:101F80007047C1F308028280704700BFFEE770B55A
:101F900004460D4629462046FFF7F3FF00BF802187
:101FA0002046FFF721FF0028F9D070BD70B5064626
:101FB0000C46002500BF615D3046FFF7E8FF6D1C51
:101FC000605D0028F7D100BF40213046FFF70CFFCD
:101FD0000028F9D070BD000070B5044600251DE052
:101FE00004F0800018B101201349086002E00020CD
:101FF00011490860012000F07BF801200E49091FFB
:10200000086000F075F800200C49C1F8A00101201B
:1020100000F06EF86006040E681CC5B2082DDFDB08
:1020200001200549091F086000F062F800200349FB
:10203000C1F8A00170BD0000A401224200002242AC
:1020400002E008C8121F08C1002AFAD17047704781
:10205000002001E001C1121F002AFBD170470000DF
:1020600010B56FF00400FFF78AFD0A4800680A49BE
:10207000B0FBF1F0094908700846007800EB400118
:10208000C1EBC0104FF6FF7101EAC000044908809F
:1020900010BD00003000002000127A00D60F002092
:1020A000D80F00200146114A12884A434FF0E0231E
:1020B0005A6100229A611A46126942F001021A61BD
:1020C00000BF4FF0E022106900F001021AB100F4E5
:1020D0008032002AF5D04FF0E022126922F001028E
:1020E0004FF0E0231A6100229A617047D80F002058
:1020F0000146114A12784A434FF0E0235A61002208
:102100009A611A46126942F001021A6100BF4FF04B
:10211000E022106900F001021AB100F48032002AB6
:10212000F5D04FF0E022126922F001024FF0E023D7
:102130001A6100229A617047D60F0020FFF734FD24
:10214000FFF78EFF4FF4A060FFF7B0F84FF4E130D7
:1021500000F046FB41F61F414F20FFF771FDFEF7EF
:1021600079FFFFF7DDFAFEF7EDF8FFF749F8FEF724
:10217000D7FFFEF7AFFC4FF4165000F0DDFAF9A1DF
:10218000FA48FFF713FF0320FFF78CFFFEF73CFB35
:10219000FEF7B0FA7E20FEF77BFCF5490860FEF7FB
:1021A000EFF80020FFF78CF8F148006845F249414C
:1021B000884221D0EFA1ED48FFF7F8FE16E0022398
:1021C000EFA200210846FFF715FA0223F1A21946F3
:1021D0000020FFF70FFA0223F2A204210020FFF7EC
:1021E00009FA7E20FEF754FCE1490860E0480068E7
:1021F00045F249418842E2D1FFF79CF80520FFF7FC
:1022000051FFECA1D948FFF7D1FE89E2FEF7BCFFF0
:10221000EB49087008460078002873D0084600781B
:10222000072870D2DFE800F088041C2C3E567000AE
:10223000E448007810B90120E2490870E1480078CC
:1022400001280CD1E0480068B0F5167F07D90120BD
:10225000DE4908700020DB490870DB4908606CE04B
:10226000DB48007801280AD1DAA1C048FFF79EFEBA
:102270000020D7490870DA490870DA4908705CE034
:10228000D348007868B9D8480078012802D1D749E6
:10229000087006E00120CE490870C6A1B348FFF7D8
:1022A00085FE4AE0CA48007808B9012000E0002015
:1022B000CF490978012901DD012100E00021084012
:1022C00020B1CB480078401EC94908700020C5499C
:1022D000087032E0BE48007808B9012000E0002014
:1022E000C3490978AA2901DC012100E00021084046
:1022F00020B1BF480078401CBD4908700020B94992
:1023000008701AE01DE017E0B148007858B90120C4
:10231000B5490870B7490870B7A19448FFF746FE61
:10232000FEF72EF802E00120AD4908700120AD490A
:102330000870FEF725F800E000BF00BF0020A049AC
:1023400008709F480078002871D1A04800780128C3
:102350000ED100209D490870A2490870A9A18348A8
:10236000FFF724FEFEF70CF8FEF70AF8FEF714FC60
:102370009E48007801287DD1A5A17C48FFF716FE74
:102380000223A6A219460020FFF734F90223A3A2D4
:1023900004210020FFF72EF90223A0A2062100202D
:1023A000FFF728F9152202210020FFF749F816222D
:1023B00002211020FFF744F8172202212020FFF706
:1023C0003FF8182202213020FFF73AF803220221B9
:1023D0004020FFF735F8192202215020FFF730F88E
:1023E000022393A219466020FFF704F91522062163
:1023F0001020FFF725F81B2206214020FFF720F8C8
:1024000027E0FEF7C1FE6E490870084600780428F0
:102410000ED11A2206211020FFF712F816220621EB
:102420004020FFF70DF801208249087011E077E1A4
:102430006348007805280CD1152206211020FEF7EC
:10244000FFFF1B2206214020FEF7FAFF00207949FA
:1024500008705B4800780628D3D1764800780128B8
:1024600009D1FEF7A7FB01205949087000205E49F9
:10247000087007E011E04FA13C48FFF797FD0020EE
:10248000534908700020594908704D490870FEF7FB
:1024900051FF00205349087042E10120FEF7EEF899
:1024A0006549486008464068B0F1806F20D9002037
:1024B000FEF706FF082200210846FEF7C1FF0922A9
:1024C00000211020FEF7BCFF5CA12848FFF76EFD3D
:1024D00006E00120FEF79DFC57494860FDF750FFDC
:1024E00055484068B0F1806FF3D8FEF723FF17E13D
:1024F00051494868FDF756FF0223534A062122201E
:10250000FFF778F83248007848BB3A48007801284D
:1025100011D1012136480078401E4C4A1154012047
:10252000FEF777FC32490978491E494A42F82100F2
:102530000020304908702E480078FDF7BBFF0223C9
:10254000444A19463020FFF755F814220421702020
:10255000FEF776FF2348007810B101207DE089E086
:102560007AE0000041463A32380000000044004062
:102570002000002041373A3030303139000000006F
:1025800048617665206E6F204644433232313421F3
:1025900000000000506C6561736520636F6E6E65AE
:1025A00063740000697420636F72726563746C7980
:1025B0002100000041373A30303031340000000053
:1025C0001C00002014000020180000202F00002014
:1025D0002800002041373A30303031370000000009
:1025E0002A000020290000202B0000202D000020C0
:1025F0001E0000202C00002041373A3030303230AD
:102600000000000041373A3030303138000000001F
:1026100041373A3030303135000000002020202092
:10262000202020202020202020202020000000002A
:102630003F0000002E000020DC0F002041373A3020
:102640003030313300000000EC0F0020C4100020B7
:1026500018140020CA0F0020002000F112020221ED
:102660007020FEF7EDFE02232EA204213020FEF79B
:10267000C1FF55E02C480078012838D1FEF7C9FB8E
:102680000446FEF71FFD294908600120284908700B
:10269000022324A204213020FEF7ACFF2448007856
:1026A00008B1012000E0002000F112020421702096
:1026B000FEF7C6FE4FF4FA70FFF7F4FC1B48006803
:1026C00040F2E731884203D01848006800F0D8F89B
:1026D00016480068FDF7EEFE0223164A042130205A
:1026E000FEF788FF0020124908700F490870FEF7B6
:1026F00021FE142202217020FEF7A2FE0C48007871
:1027000008B1012000E0002000F112020421702035
:10271000FEF796FE022303A219463020FEF76AFF59
:1027200074E50000202020002A0000202400002062
:1027300029000020CA0F002010B586B004460121F0
:102740000420FFF761F801214804FFF74DF8082045
:10275000ADF8000004208DF8030069461E48FEF71E
:1027600095FB0420ADF8000003208DF8020018202E
:102770008DF8030069461848FEF788FB0294002094
:10278000ADF80C00ADF80E00ADF81000ADF8140077
:102790000C20ADF8120002A91048FFF781FB0122BE
:1027A00040F225510D48FFF756FB01210B48FFF77A
:1027B0000FFB4FF4E060FEF779FD26208DF8040052
:1027C00000208DF8060001208DF8070001A8FEF713
:1027D00035FD06B010BD0000000801400044004077
:1027E00010B586B00446012144F20400FFF70CF84E
:1027F0004FF40070ADF8140003208DF81600182077
:102800008DF8170005A91C48FEF740FB4FF48060C7
:10281000ADF8140004208DF8170005A91648FEF73E
:1028200035FB25208DF8000003208DF801008DF880
:10283000020001208DF803006846FEF7FFFC0194BA
:102840000020ADF80800ADF80A00ADF80C00ADF8B6
:1028500010000C20ADF80E0001A90848FFF720FB7E
:10286000012240F225510548FFF7F5FA01210348FE
:10287000FFF7AEFA06B010BD000801400038014075
:10288000F0B585B0054600260027032442208DF8C8
:10289000000037208DF801003A208DF802006420F6
:1028A000B5FBF0F0C0B20A2190FBF1F201FB12007F
:1028B00000B101270A20B5FBF0F0C0B20A2190FB5D
:1028C000F1F201FB120000B101266420B5FBF0F02B
:1028D000C0B20A2190FBF1F201FB12000A2869D272
:1028E000DFE800F06805101B26313C47525D3022BE
:1028F0002046641C0DF8002031222046641C0DF88F
:10290000002057E030222046641C0DF800203222BF
:102910002046641C0DF800204CE030222046641C48
:102920000DF8002033222046641C0DF8002041E001
:1029300030222046641C0DF8002034222046641CFE
:102940000DF8002036E030222046641C0DF80020EF
:1029500035222046641C0DF800202BE03022204652
:10296000641C0DF8002036222046641C0DF800205F
:1029700020E030222046641C0DF80020372220463B
:10298000641C0DF8002015E030222046641C0DF870
:10299000002038222046641C0DF800200AE0302276
:1029A0002046641C0DF8002039222046641C0DF8D6
:1029B000002000BF00BF47B131222046641C0DF843
:1029C00000202046641C0DF800200A20B5FBF0F022
:1029D000C0B20A2190FBF1F201FB12000A2869D271
:1029E000DFE800F06805101B26313C47525D3022BD
:1029F0002046641C0DF8002031222046641C0DF88E
:102A0000002057E030222046641C0DF800203222BE
:102A10002046641C0DF800204CE030222046641C47
:102A20000DF8002033222046641C0DF8002041E000
:102A300030222046641C0DF8002034222046641CFD
:102A40000DF8002036E030222046641C0DF80020EE
:102A500035222046641C0DF800202BE03022204651
:102A6000641C0DF8002036222046641C0DF800205E
:102A700020E030222046641C0DF80020372220463A
:102A8000641C0DF8002015E030222046641C0DF86F
:102A9000002038222046641C0DF800200AE0302275
:102AA0002046641C0DF8002039222046641C0DF8D5
:102AB000002000BF00BF4EB131222046641C0DF83B
:102AC000002030222046641C0DF80020E8B20A21C4
:102AD00090FBF1F201FB12000A2869D2DFE800F056
:102AE0006805101B26313C47525D30222046641C8D
:102AF0000DF8002031222046641C0DF8002057E01C
:102B000030222046641C0DF8002032222046641C2E
:102B10000DF800204CE030222046641C0DF8002007
:102B200033222046641C0DF8002041E0302220466C
:102B3000641C0DF8002034222046641C0DF800208F
:102B400036E030222046641C0DF800203522204655
:102B5000641C0DF800202BE030222046641C0DF888
:102B6000002036222046641C0DF8002020E0302290
:102B70002046641C0DF8002037222046641C0DF806
:102B8000002015E030222046641C0DF80020382279
:102B90002046641C0DF800200AE030222046641C08
:102BA0000DF8002039222046641C0DF8002000BFDB
:102BB00000BF31222046641C0DF80020322220463E
:102BC000641C0DF8002069460248FFF7EFF905B0D4
:102BD000F0BD0000004400400000000000000000C4
:102BE000002F000000000700070000147F147F146E
:102BF00000242A7F2A1200626408132300364955F4
:102C0000225000000503000000001C2241000000CB
:102C100041221C000014083E08140008083E080861
:102C2000000000A0600000080808080800006060BC
:102C30000000002010080402003E5149453E0000FB
:102C4000427F4000004261514946002141454B31DD
:102C5000001814127F10002745454539003C4A49A9
:102C6000493000017109050300364949493600061B
:102C70004949291E00003636000000005636000083
:102C800000081422410000141414141400004122FE
:102C9000140800020151090600324959513E007CD6
:102CA0001211127C007F49494936003E41414122C0
:102CB000007F4141221C007F49494941007F0909A9
:102CC0000901003E4149497A007F0808087F000059
:102CD000417F4100002040413F01007F0814224114
:102CE000007F40404040007F020C027F007F0408CC
:102CF000107F003E4141413E007F09090906003E28
:102D00004151215E007F0919294600464949493150
:102D10000001017F0101003F4040403F001F204073
:102D2000201F003F4038403F006314081463000731
:102D30000870080700615149454300007F41410088
:102D400000552A552A55000041417F000004020128
:102D50000204004040404040000001020400002006
:102D600054545478007F4844443800384444442044
:102D700000384444487F00385454541800087E09F1
:102D800001020018A4A4A47C007F080404780000B9
:102D9000447D4000004080847D00007F1028440076
:102DA0000000417F4000007C04180478007C080487
:102DB000047800384444443800FC242424180018C3
:102DC000242418FC007C08040408004854545420AF
:102DD00000043F444020003C4040207C001C204038
:102DE000201C003C4030403C004428102844001C7B
:102DF000A0A0A07C004464544C4414141414141473
:102E000018245A5A24180000000000000000000096
:102E1000000000000000000000F8000000000000BA
:102E200000333000000000100C06100C06000000FB
:102E300000000000000040C07840C0784000043F1F
:102E400004043F040400007088FC083000000018EF
:102E500020FF211E0000F008F000E0180000002113
:102E60001C031E211E0000F00888700000001E21B7
:102E700023241927211010160E0000000000000066
:102E8000000000000000000000E018040200000044
:102E900000071820400000020418E0000000004075
:102EA000201807000000404080F0804040000202EF
:102EB000010F01020200000000F00000000001010B
:102EC000011F01010100000000000000000080B0AF
:102ED0007000000000000000000000000000000181
:102EE00001010101010100000000000000000030AC
:102EF0003000000000000000000080601804006046
:102F000018060100000000E010080810E000000FA3
:102F1000102020100F00001010F80000000000200A
:102F2000203F202000000070080808887000003052
:102F300028242221300000300888884830000018FA
:102F4000202020110E000000C02010F80000000713
:102F50000424243F240000F8088888080800001989
:102F6000212020110E0000E0108888180000000FBA
:102F7000112020110E0000380808C8380800000091
:102F8000003F000000000070880808887000001CE6
:102F9000222121221C0000E010080810E00000009F
:102FA000312222110F00000000C0C000000000000C
:102FB0000030300000000000008000000000000031
:102FC0008060000000000000804020100800000128
:102FD00002040810200040404040404040000404EB
:102FE00004040404040000081020408000000020B5
:102FF000100804020100007048080808F0000000F2
:10300000003036010000C030C828E810E000071882
:10301000272423140B000000C038E0000000203CEF
:1030200023020227382008F8888888700000203F93
:10303000202020110E00C0300808080838000718AA
:1030400020202010080008F808080810E000203FA1
:10305000202020100F0008F88888E8081000203F82
:1030600020202320180008F88888E8081000203F56
:10307000200003000000C0300808083800000718CE
:103080002020221E020008F808000008F808203F4F
:10309000210101213F20000808F808080000002055
:1030A000203F2020000000000808F8080800C08029
:1030B00080807F00000008F888C028180800203FA2
:1030C00020012638200008F8080000000000203FFA
:1030D00020202020300008F8F800F8F80800203FF1
:1030E000003F003F200008F830C00008F808203FEB
:1030F000200007183F00E01008080810E0000F103B
:10310000202020100F0008F808080808F000203FD1
:10311000210101010000E01008080810E0000F186C
:10312000242438504F0008F8888888887000203F91
:103130002000030C30200070880808083800003890
:10314000202121221C00180808F808081800000097
:10315000203F2000000008F808000008F808001FC1
:10316000202020201F000878880000C838080000B0
:1031700007380E010000F80800F80008F800033CCA
:103180000700073C03000818688080681808203092
:103190002C03032C30200838C800C8380800000071
:1031A000203F2000000010080808C8380800203818
:1031B000262120201800000000FE0202020000006C
:1031C000007F40404000000C30C0000000000000C4
:1031D00000010638C00000020202FE0000000040AC
:1031E00040407F00000000000402020204000000D2
:1031F00000000000000000000000000000008080CF
:1032000080808080808000020204000000000000B6
:103210000000000000000000808080800000001995
:10322000242222223F2008F8008080000000003F76
:10323000112020110E000000008080800000000E90
:10324000112020201100000000808088F800000E6E
:10325000112020103F200000808080800000001F8F
:10326000222222221300008080F088888818002003
:10327000203F202000000000808080808000006BC4
:1032800094949493600008F8008080800000203FB0
:10329000210000203F2000809898000000000020BE
:1032A000203F20200000000000809898000000C00F
:1032B0008080807F000008F8000080808000203F30
:1032C00024022D302000000808F800000000002033
:1032D000203F202000008080808080808000203F70
:1032E00020003F20003F8080008080800000203F41
:1032F000210000203F200000808080800000001F0F
:10330000202020201F00808000808000000080FF9F
:10331000A12020110E000000008080808000000E9F
:10332000112020A0FF8080808000808080002020ED
:103330003F21200001000000808080808000003359
:10334000242424241900008080E0808000000000F4
:10335000001F202000008080000000808000001FEF
:10336000202020103F20808080000080808000018D
:103370000E300806010080800080008080800F30C1
:103380000C030C300F000080800080808000002043
:10339000312E0E312000808080000080808080816E
:1033A0008E701806010000808080808080000021DF
:1033B000302C2221300000000000807C020200003E
:1033C0000000003F404000000000FF00000000003F
:1033D0000000FF0000000002027C800000000040AE
:1033E000403F00000000000601010202040400004A
:1033F0000000000000000000002C15010034200136
:10340000006C280100382F010018350100E43A0152
:10341000001040010090440100E0480100AC4C0164
:103420000020500100605301008056010044590102
:1034300000C85B0100505E010070600100906201F5
:10344000007864010060660100F06701009C69017A
:1034500000386B0100746C0100AC6D01002C6F0131
:1034600000307001005C7101006472010070730132
:10347000005474010054750100387601000477018E
:1034800000B87701009C78010041790100F07901D2
:10349000008C7A0100547B0100D87B0100707C0114
:1034A000000C7D0100847D0100187E0100907E01EA
:1034B00000187F0100847F0100F87F01005C80011B
:1034C00000CC80010038810100A881010010820138
:1034D0000069820100AC8201000083010070830159
:1034E00000C4830100108401006C840100AC8401DD
:1034F000000C8501004C85010080850100DC850100
:1035000000188601006086010098860100D88601B7
:103510000010870100548701008C870100BC8701DF
:1035200000048801003088010070880100A888012B
:1035300000D488010004890100348901006C8901EC
:1035400000A0890100D4890100008A0100248A01B9
:1035500000488A0100708A0100A08A0100D08A0117
:1035600000F88A0100208B0100448B01006C8B0164
:1035700000958B0100B48B0100D48B0100008C01FD
:1035800000148C0100408C0100648C0100848C01CB
:1035900000A08C0100BC8C0100DC8C0100008D01BE
:1035A000001C8D0100348D0100588D0100708D01CB
:1035B000008C8D0100B08D0100C08D0100DC8D01FB
:1035C00000F48D01F80C8E0100208E01003C8E016C
:1035D00000548E0100788E0100908E0100A08E01B3
:1035E00000BC8E01D0CF8E0100E48E0100008F015F
:1035F00000148F0130308F015C418F0100508F012A
:1036000000648F01007C8F0100948F0100A88F015E
:1036100000C08F0100CC8F0100E08F0148F48F01C2
:1036200000049001001C90010038900100449001BA
:10363000005C90010068900100749001008490018A
:10364000389B900100A8900100BC900100C8900137
:1036500018D8900100E4900100F89001D40A91017B
:1036600000149101CC1F910160309101903D9101B6
:10367000004891010058910130649101D078910186
:103680000088910100949101009C9101C8AC9101C6
:1036900000C4910100D0910100DC910100F491017E
:1036A00031000000C436000800000020DC0F0000DC
:1036B000EC020008643F0008DC0F0020E40E00006C
:1036C00050200008011E5201C2FF7CA24A041E685D
:1036D00008020304060708090C6910C5020406085D
:1036E00067666618186666A7F008040408F0B7074E
:1036F0000810100807D40808FCA610101F1010A707
:103700003804040484789F18141211101810A604A9
:1037100084844438B70C101010110EACC02018610E
:103720009008030212121F12127EFC44444484E2E9
:103730004940A9A0CFF08844444880C09B100F3076
:10374000C60404C4340CD21FCB3844A0CB0E11A045
:103750001AF8E0B388F0AC09111180119CE01C70DC
:103760007F8009101E110101131C102A04C09AB891
:1037700020CA1FC01BE0186093041C3A03E089F0C4
:103780001B04FC1F8A0880E94090082020C0F8C074
:1037900020201301012A070589211BE03C03A11CFD
:1037A000021F0203591C111210200FE81F262021AE
:1037B000222224E423082010381BFC07174440FF72
:1037C0003F2A24012FFC22222223223A29013C42B3
:1037D000827F081A024316444424FF141724A47F4E
:1037E0008404FC22C0100F88894A29180E0A09484F
:1037F000884838010335404042CC29C11A04214190
:10380000180C3F10884023190101091123301C3E78
:1038100022E25C223E22F822FF18088141310F414A
:1038200081417A250F40807F1640422410FF1E847C
:103830004444447F0412042010222212120AFE4241
:10384000270A1222324A424218081715D5555755F1
:103850007D041CD51517304D40407F55011A7F0C53
:1038600011180C40221408F402445454547F0412DA
:10387000442C0844825D1FFF1515155595601128CD
:103880000E2028AA6C28382FA8A8ECAA2820E03AF5
:10389000111A1E1414141011E0580A202020FF20C1
:1038A00022149010A0580A404020130C142241F812
:1038B000A0091E40112B222C425B2826401808022A
:1038C0008242221A070201594014020CC01D080846
:1038D00008FF0419221940180E7F804121110D03A1
:1038E0000D1121418181703342CC193A3AFE0631E3
:1038F0001E3F1088601F073910180F2030AC63304E
:1039000004A4643C27E40404046F380F67221212F5
:1039100020110D41817F0105093020180820180869
:103920004848487F044A082012122BFE42011953CE
:10393000313DFE9292920441101044442425140C0F
:1039400004FF040C1425244444180A080493929696
:103950009A92FA94071AFAD0200F40404724241470
:103960000CFF04042444241C801080804020100894
:1039700004C30408102040808049AA41BA400101D4
:103980001319F9690131CA1001218B04840119E06E
:10399000CA2001211AFCF77904312D7F2824231A2B
:1039A00036212222227F1A02E82BC27EEE1AC2BFE3
:1039B000398F3B78478C2A7F90180E1010D0FF90DB
:1039C00014E4AFA4A4A4AFE4601B0403BC180B89E7
:1039D0004B2A1A0E1A2A4B8880202A9001180810A8
:1039E00010FF10101116902D2060203F991B030C22
:1039F000F11AF8501B42CC85280824A4242222A3C3
:103A000062F0280D201F2058475048454245485035
:103A1000F0500CFE0202F2121212F20202FE280B09
:103A20007F2020272424242720209F613AFF9129EA
:103A30002E4909299B4912162030AC6330193C26C7
:103A40000202625AC6001013226722121240308FFF
:103A500080432C102C4380C336361A02013DC2B27B
:103A60008E82011302025D080402016E5340FF1DA5
:103A700010600418827118108181414121110907D9
:103A80000105091121C101401EFAAAABAAFAC41B03
:103A900003020621500D888B48281A0B0808488815
:103AA0004A3B1A04012AFC054304FC1F80402018ED
:103AB0000601C93480403F280A080888C8A8988FA2
:103AC000E888011308081302012917196F0424104C
:103AD000201F280F1088C433404848487F48C848F2
:103AE00048404012FF1808020A320242827FDB413E
:103AF0005BF8080162F85B1F100159607AF8015900
:103B0000207901612CC020103E641020C02C0304D9
:103B1000083E5C080403202BE0F03D6BF0E0202B16
:103B2000070F3D3B0F0720100A03050911FF1189FC
:103B300005C312E012F0596311073D4428FF11AA92
:103B400044700B830138448292927401831E7C443A
:103B5000C7017D01990562FF9A0102818A010B016B
:103B60003669419949FA0101A12A4001212A6D01D2
:103B7000212A6001791501642ADB010915072ADA77
:103B800001212AD801212AC0010915072A80010133
:103B9000352A06010918071CE66620076A86157A89
:103BA000861C2A8601180A80808686068686C0C002
:103BB0000C0E1C0606D030764D2907013113601C0F
:103BC00012FE1301021009C41820029E63B20E1DDA
:103BD000FF8181FFF24440300F12FF180923EAAA47
:103BE000BFAAEA033F0B012DBC8080800801152489
:103BF0000E0C082A01013149041D818080810219BF
:103C000001B91706110101090C0E0A14C00121782F
:103C1000081E21404050215E08012A4DFFFFC1C10E
:103C20000409232D181580FCF3EFF3FC80FF80EED0
:103C3000EEEEF5FBFF9CBEB6B6883A27E01008080A
:103C400010E0270F102020100F541010F8362020FD
:103C50003F2020277008080888701F302824222160
:103C600030081D08888848082E1820202011E83BBD
:103C7000C0203227070424243F241AF820230808F0
:103C80004B19212036E0108888184B0F11101E3870
:103C90000808C8382021523F1A702E29608F1C2234
:103CA0002121221C901116312222110F162030AC36
:103CB0006330100AFC848484FE828382801622672B
:103CC00022121214FF402016010E3040F81F02E2AB
:103CD00022223E80D627A090888680801D43824283
:103CE0003EEF1008402106081020401D404042CC05
:103CF000052C4040FF054240347F201019FB411045
:103D00001090523410FF10345280708F0808F80859
:103D10001008829A566322528E10088040330C336A
:103D200040801640422410FF1E844444447F041205
:103D3000041A227F200C0AFE42270A1222324A422B
:103D40004218081715D55557557D0424D515171950
:103D5000644B7F55012A7F70200F1010D0FF901008
:103D60000202FE0202625AC61B04037A580B433059
:103D70008F80432C102C438020115808FC24E4240D
:103D80002223E220100B83601F80412618264180E9
:103D90001C908887FD1D8002F2120113F202178029
:103DA000601807083018084045594141514DD01658
:103DB0003E22E2223E3710885724548C17407E4022
:103DC0003F2222580901FE424242FE010160480A98
:103DD000804828090E08284888605B01807F22807F
:103DE000100F020CE04020F84F4849FE48484808B0
:103DF0003404047F1DFF22222247132220280D10A5
:103E00006002CC8040201E0202023ED01C04047ED0
:103E10003E1808834D51215149874015404042CCFE
:103E2000180B0444645C47F444444404811C201F80
:103E3000200A2C44447F051980180D10FF105044AF
:103E40005465C64464544440180F44827F01828202
:103E50004A562322524E82022015F01F10F01808F5
:103E6000808282E2928A86501E2215081661472AB5
:103E70008088514B7F49013911280A8141211D2138
:103E80004181FF89011B8181C0200D828242221263
:103E9000FA06222242428219F31AFC781A45041AC1
:103EA000FC0E51B00A30380C0C0C8CCC7C38736F83
:103EB0006F17F0F80C0CF8F046FCFC603018170F88
:103EC0001F30301F0F07253F3F060C1830093CA05C
:103ED000158060F80730083E2222E222223E1912A5
:103EE000100DFF2011090503FF0305091120180813
:103EF000040484E41C07240116A4642404041302AB
:103F00000112FF2F020242827F020111161010FFE0
:103F10001090100AFE929292F292929E8019191DB0
:103F20000180601F653A47624EFFFFFF80B6011AAD
:103F3000800C1009FF7EBEDEE2DEBE7E2A7601180E
:103F40001C7E7EFFFFFD7D7DBDDDED05F9DDDDBD68
:103F5000BD7DFFFFFEFEFF03BBBBBBBA041A030E11
:043F60000212FF004A
:04000005080000ED02
:00000001FF
