:020000040800F2
:10000000182100200501000841120008F71000081F
:100010003D120008B103000897200008000000000E
:10002000000000000000000000000000951A000819
:10003000350500080000000041180008031C0008F6
:100040001F0100081F0100081F0100081F01000810
:100050001F0100081F0100081F0100081F01000800
:100060001F0100081F0100081F0100081F010008F0
:100070001F0100081F0100081F0100081F010008E0
:100080001F0100081F0100081F0100081F010008D0
:100090001F0100081F0100081F010008ED050008EE
:1000A0001F0100081F0100081F0100081F010008B0
:1000B000651C00081F010008F91C00081F0100084A
:1000C0001F0100081F0100081F0100081F01000890
:1000D0001F010008751E0008B91E00081F01000856
:1000E000390500081F0100081F010008DFF810D0C3
:1000F00000F002F900480047A9250008AFF300808E
:10010000182100200648804706480047FEE7FEE722
:10011000FEE7FEE7FEE7FEE7FEE7FEE7FEE7FEE7B7
:10012000051C0008ED000008D2B201E000F8012B28
:10013000491EFBD270470022F6E710B513460A4667
:1001400004461946FFF7F0FF204610BD80EA010281
:1001500010B502F00043400022D04A001FD0010E2B
:1001600001EB1261C0F35600C2F3560240F40000E6
:1001700042F40002A0FB022000047F39140400D0E6
:10018000401C50EA124001D44000491EC2B20C0685
:1001900004EBD010401C4008802A02D003E000206D
:1001A00010BD20F00100002900DA0020184310BD26
:1001B00030B480EA010202F0004530F0004221F044
:1001C000004013D090B1C30DD40DC2F31601C0F39B
:1001D0001600E41A41F4000140F400027D3491421B
:1001E00001D3641C00E04900002C02DA30BC00207E
:1001F00070474FF400000023914201D3891A034352
:1002000040084FEA4101F7D151B1914202D14FF07C
:10021000004105E002D24FF0010101E06FF0010161
:1002200003EBC450284430BC00F02FB896230022C2
:10023000114600F033B820F00040C10DC0F31600A5
:1002400040F400007F2901DA00207047962903DC82
:10025000C1F19601C840704796398840704730B563
:100260000B46014600202022012409E021FA02F574
:100270009D4205D303FA02F5491B04FA02F528440E
:10028000151EA2F10102F1DC30BD0029A8BF7047A4
:10029000401C490008BF20F00100704710B4B0FABC
:1002A00080FC00FA0CF050EA010404BF10BC704757
:1002B00049B1CCF1200421FA04F411FA0CF118BF71
:1002C000012121430843A3EB0C01CB1D4FEA006140
:1002D0004FEA102042BF002010BC704700EBC35013
:1002E00010440029A4BF10BC7047401C490008BF3F
:1002F00020F0010010BC7047064C074D06E0E06896
:1003000040F0010394E8070098471034AC42F6D35C
:10031000FFF7F0FE0C3A00082C3A000870B58D1873
:1003200010F8014B14F0030201D110F8012B231136
:1003300006D110F8013B03E010F8016B01F8016BE6
:10034000521EF9D1ABB110F8012B04F00C048A1A3B
:100350000C2C03D0A2EB84129B1C08E010F8014B7C
:10036000A2EB0422F8E712F8014B01F8014B5B1EE7
:10037000F9D5A942D4D3002070BD000008B50121F1
:10038000082001F06FFA8020ADF8000010208DF8F1
:10039000030003208DF802006946044800F0C4FD04
:1003A0008021024800F0A3FE08BD0000000C0140BF
:1003B00000BFFEE710B5012006490860C82001F023
:1003C000BBFF00200449C1F89C01C82001F0B4FF24
:1003D00010BD00009C8121420080214230213D4A15
:1003E00011703D49B0FBF1F1C9B20A2291FBF2F361
:1003F00002FB13113031374A51703849B0FBF1F12B
:10040000C9B20A2291FBF2F302FB13113031314AD7
:1004100091703349B0FBF1F1C9B20A2291FBF2F3BA
:1004200002FB131130312B4AD1702E49B0FBF1F190
:10043000C9B20A2291FBF2F302FB13113031254AB3
:1004400011712949B0FBF1F1C9B20A2291FBF2F313
:1004500002FB131130311F4A517142F21071B0FB8F
:10046000F1F1C9B20A2291FBF2F302FB1311303110
:10047000184A91714FF47A71B0FBF1F1C9B20A22B6
:1004800091FBF2F302FB13113031124AD171642156
:10049000B0FBF1F1C9B20A2291FBF2F302FB131196
:1004A00030310C4A11720A21B0FBF1F1C9B20A22B3
:1004B00091FBF2F302FB13113031064A5172C1B2C3
:1004C0000A2291FBF2F302FB13113031014A9172BF
:1004D000704700004012002000CA9A3B00E1F50579
:1004E0008096980040420F00A08601006421B0FB76
:1004F000F1F1C9B20A2291FBF2F302FB1311303180
:100500000B4A11700A21B0FBF1F1C9B20A2291FB2A
:10051000F2F302FB13113031054A51700A21B0FB8E
:10052000F1F201FB12013031014A91707047000075
:10053000121200207047000010B54FF4006000F068
:10054000A3F8B8B10A2001F0F7FE4FF40061244887
:1005500000F0C2FD50B900BF4FF40061204800F028
:10056000BBFD0028F8D001201E4908704FF4006040
:1005700000F084F84FF4005000F086F8A0B10A2093
:1005800001F0DAFE4FF40051174800F0A5FD38B92C
:1005900000BF4FF40051144800F09EFD0028F8D031
:1005A0004FF4005000F06AF84FF4004000F06CF88F
:1005B000A0B10A2001F0C0FE4FF400410A4800F04B
:1005C0008BFD38B900BF4FF40041074800F084FDAF
:1005D0000028F8D04FF4004000F050F810BD0000A3
:1005E000000C0140610000200008014010B580208F
:1005F00000F04AF888B10A2001F09EFE80211D48D3
:1006000000F06AFD30B900BF80211A4800F064FD97
:100610000028F9D0802000F031F8202000F034F8D4
:1006200088B10A2001F088FE2021134800F054FD13
:1006300030B900BF2021104800F04EFD0028F9D04D
:10064000202000F01BF8402000F01EF888B10A209E
:1006500001F072FE4021074800F03EFD30B900BFB6
:100660004021044800F038FD0028F9D0402000F077
:1006700005F810BD000C0140000801400149086068
:100680007047000014040140014600200022074B7F
:100690001B6803EA0102054B14331B680B4013B1BE
:1006A0000AB1012000E00020704700000004014072
:1006B00070B5054635B1012D0FD0022D18D0032D90
:1006C0002CD120E0002000F0FDF9C0F30B04012044
:1006D00000F0F8F940EA044421E0022000F0F2F9C9
:1006E000C0F30B04032000F0EDF940EA044416E0E7
:1006F000042000F0E7F9C0F30B04052000F0E2F954
:1007000040EA04440BE0062000F0DCF9C0F30B04DF
:10071000072000F0D7F940EA044400E000BF00BF22
:1007200024F07044204670BD10B500F05AF800F077
:1007300085F87E2000F0C6F9044645F2494084421F
:100740004BD1FB223421082001F01AFAFB2234217C
:10075000092001F015FAFB2234210A2001F010FAD9
:100760001B220021102001F00BFA1B220021112076
:1007700001F006FA1B220021122001F001FA0222E8
:100780002021142001F0FCF902222021152001F083
:10079000F7F902222021162001F0F2F90022782137
:1007A0001E2001F0EDF9002278211F2001F0E8F968
:1007B00000227821202001F0E3F9002211461920BF
:1007C00001F0DEF90D22C2211B2001F0D9F901222E
:1007D00014211A2001F0D4F901E0012010BD0020FD
:1007E000FCE7704710B500200E4908600E4800680D
:1007F00020F0F0000C4908600846006840F0300026
:10080000086000200949C1F8A40100F011F8012096
:100810000449086000F00CF800200449C1F8A00168
:1008200010BD0000A0812142040C01400080214243
:1008300010B5022001F0A6FD10BD000008B5012191
:10084000082001F00FF84FF48070ADF80000102080
:100850008DF8030003208DF802006946164800F069
:1008600063FB4FF48071144800F041FC4FF40070BA
:10087000ADF8000010208DF8030003208DF8020071
:1008800069460D4800F050FB4FF400710A4800F033
:100890002EFC0320ADF8000010208DF8030003208B
:1008A0008DF802006946044800F03EFB032102482F
:1008B00000F01BFC08BD0000000C014010B500203A
:1008C0000E4908600E48006820F0F0000C490860EE
:1008D0000846006840F03000086001200949C1F86E
:1008E000A401FFF7A5FF012004490860FFF7A0FF5E
:1008F00000200449C1F8A00110BD0000A0812142E0
:10090000040C01400080214270B5054600241648C1
:10091000006820F0F000144908600846006840F0C4
:1009200080000860002614E0002010490860FFF7EE
:100930007FFF01200E49C1F8A0016006040E0B489C
:100940007C38006808B1601CC4B2FFF771FF701CEE
:10095000C6B2082EE8DB15B9FFF7B0FF01E0FFF7DC
:1009600041FF204670BD0000040C0140A0812142DF
:100970000080214270B504461248006820F0F00063
:10098000104908600846006840F030000860002008
:100990000D490860002512E0E0090B49091D0860B7
:1009A0006006040E01200949C1F8A001FFF740FFCD
:1009B000002005490860FFF73BFF681CC5B2082D01
:1009C000EADB70BD040C0140A0812142008021427D
:1009D00010B50E48006820F0F0000C490860084689
:1009E000006840F0300008600120094908600949AA
:1009F000C1F8A001FFF71CFF002005490860FFF7C0
:100A000017FF00200349C1F8A00110BD040C0140EC
:100A1000A48121420080214210B50E48006820F0D8
:100A2000F0000C4908600846006840F0300008609B
:100A30000020094908600949C1F8A401FFF7F8FE40
:100A40000120054908600549C1F8A401FFF7F0FE3F
:100A500010BD0000040C0140A08121420080214211
:100A600010B500241448006820F0F0001249086016
:100A70000846006840F08000086001200F490860C7
:100A8000FFF7D6FE01200E49C1F8A001FFF7D0FE06
:100A900007E0601CC4B2FA2C03DDFFF7BDFF0120A4
:100AA00010BD0648803800680028F2D10349091FAC
:100AB000086000BFF4E70000040C0140A48121425B
:100AC0000080214270B50546FFF782FF5420FFF7F2
:100AD00051FFFFF7C5FF2846FFF74CFFFFF7C0FFA8
:100AE000FFF776FF5520FFF745FFFFF7B9FF01201D
:100AF000FFF70AFF04020020FFF706FF0443FFF799
:100B00008BFF204670BD00001CB500240020019022
:100B10000090294800F031FF31282CD000BF10E0B0
:100B2000264A02EB8401264A02EB8400022200F0EE
:100B300027FF012322460821602000F0D9FC601C19
:100B4000C4B2AA2CECDB01240DE0601E1B4951F855
:100B5000200051F8241008444108601E194A42F848
:100B60002010601CC4B2AA2CEFDB012216491248E7
:100B700000F006FF1FE0022201A9114800F0ECFE80
:100B80004FF47A7001F0D8FB012412E00C4901EB1C
:100B900084000222694600F0DFFEDDE9001008440F
:100BA0004108601E074A42F8201000980190601C1E
:100BB000C4B2AA2CEADB1CBDFEF2000860370008B4
:100BC00000F00008C4130020083A000810B500F037
:100BD0004FF9342000F0DCF8024800F0DFF800F0B4
:100BE0001DF910BD00F000082DE9F05F002400267B
:100BF000A34600250027A046A14600BF012441E0EE
:100C0000544850F8240000283AD02746681CC6B241
:100C100033E0504951F827104E4A52F82520881ADF
:100C2000FFF704FB80464C4951F827104A4A52F816
:100C30002520881AFFF7FAFA814649464046FFF711
:100C4000B7FA8046444951F82610434A52F8252005
:100C5000881AFFF7EBFA814649464046FFF776FAD5
:100C600080464046FFF7E7FA3A4951F82510084414
:100C7000384941F82600701CC6B2BE42C9DB3D4669
:100C8000601CC4B2AA2CBBDB00F0F2F8334800F0C1
:100C900085F800F0C3F8022331A20621002000F0FD
:100CA000D7FC002417E02B4A02EB84012B4A02EB0D
:100CB0008400022200F064FE68206043AA2190FBB9
:100CC000F1F000F0FF0A02232AA20621504600F0AC
:100CD000BFFC601CC4B2AA2CE5DB022320A219468B
:100CE000002000F0B5FC02231DA20621002000F028
:100CF000AFFC022320A20021282000F0A9FC4FF421
:100D00007A7001F019FB01221D491E4800F038FEDF
:100D100001240DE0601E0F4951F8200051F8241005
:100D200008444108601E184A42F82010601CC4B2F2
:100D3000AA2CEFDB002408E01448005D18B900205D
:100D4000044941F82400601CC4B2AA2CF4DBBDE8BD
:100D5000F09F00006C1600206037000800F00008CB
:100D60002020202020202020202020202020202083
:100D7000000000003E3E3E005361766564210000A5
:100D8000083A0008FEF20008C413002018130020DF
:100D90000149C860704700000020024030B5044699
:100DA00004254FF4302000F06FF80546042D17D1CC
:100DB0000C48006940F002000A4908610846446195
:100DC000006940F0400008614FF4302000F05CF80A
:100DD00005460448006941F6FD7108400149086173
:100DE000284630BD0020024004200B49C96801F0AC
:100DF000010109B101200EE00749C96801F00401B1
:100E000009B1022007E00449C96801F0100109B1E5
:100E1000032000E0042070470020024003480069DE
:100E200040F0800001490861704700000020024046
:100E300070B504460D460426F00200F025F806467B
:100E4000042E11D10948006940F0010007490861EA
:100E50002580F00200F018F806460448006941F6C3
:100E6000FE71084001490861304670BD0020024013
:100E700002480349486003484860704723016745BA
:100E800000200240AB89EFCD00B502460423FFF7F6
:100E9000ABFF034603E0FFF7A7FF0346521E012BFB
:100EA00001D1002AF7D102B90523184600BD2DE96A
:100EB000F04186B08046002418216846FFF73BF9D0
:100EC00000250026002700BF0EE04046FFF7F0FB9C
:100ED00040F2FF3108436FF309004DF82400012070
:100EE00001F02AFA601CC4B2052CEEDD009D009EC4
:100EF000009F012410E05DF82400B04201D95DF8A4
:100F000024605DF82400B84201D25DF824705DF8D9
:100F100024000544601CC4B2052CECDDA81BC01BDA
:100F2000800806B0BDE8F0812DE9F04102460025B9
:100F30000026002000230024002791F803C00CF0B5
:100F40000F0591F803C00CF0100CBCF1000F03D09A
:100F500091F802C04CEA050591F800C0BCF1000F01
:100F600031D0146800202BE04FF0010C0CFA00F394
:100F7000B1F800C00CEA03069E4220D183004FF076
:100F80000F0C0CFA03F7BC4305FA03FC4CEA04040B
:100F900091F803C0BCF1280F06D14FF0010C0CFAF8
:100FA00000FCC2F814C00AE091F803C0BCF1480F7D
:100FB00005D14FF0010C0CFA00FCC2F810C0401C27
:100FC0000828D1D31460B1F800C0BCF1FF0F34DDA4
:100FD000546800202EE000F1080C4FF0010808FAD8
:100FE0000CF3B1F800C00CEA03069E4221D1830045
:100FF0004FF00F0C0CFA03F7BC4305FA03FC4CEA64
:10100000040491F803C0BCF1280F05D100F1080CCD
:1010100008FA0CF8C2F8148091F803C0BCF1480F2C
:1010200007D100F1080C4FF0010808FA0CF8C2F8DB
:101030001080401C0828CED35460BDE8F081000029
:10104000F0B50A46002300240021002500F00046E8
:10105000B6F1004F02D11D4EF16901E01B4E7168DF
:10106000C0F3034583B200F44016B6F5401F08D123
:1010700021F07061154E766826F07066134F7E6021
:1010800012E000F48016B6F5801F06D1032606FA9A
:1010900005F4A14341F0706106E0460D360103FA04
:1010A00006F6B14341F0706122B1460D360103FAF4
:1010B00006F6314300F00046B6F1004F02D1034E70
:1010C000F16101E0014E7160F0BD000000000140DF
:1010D0000146886880B270470246002093680B4042
:1010E0000BB1012000E000207047416170470161B1
:1010F0007047C160704700BFFEE7000010B50120D7
:101100000A49086001F03EF901200949C1F8A0012F
:1011100001F038F9002005490860012001F032F99A
:1011200000200349C1F8A00110BD0000A401214224
:101130000000214210B500200A490860012001F09A
:1011400021F900200849C1F8A001012001F01AF995
:1011500001200449086001F015F901200249C1F895
:10116000A00110BDA40121420000214270B5054636
:10117000002410480068A84201D9012070BD012454
:101180000EE0601E0B4951F82000A84206D8084620
:1011900050F82400A84201D9601CEFE7601CC4B2DB
:1011A000A92CEEDB04A1074800F086FF40F2E730EF
:1011B000E4E70000C413002041373A3030303231C8
:1011C000000000000044004008B500F01BFD0121B4
:1011D000042000F047FB0121084600F043FB0121F9
:1011E0001448FFF72DFF0F20ADF8000003208DF805
:1011F000020010208DF8030069460F48FFF794FEA7
:10120000F020ADF8000003208DF8020048208DF892
:10121000030069460848FFF787FE4FF40050ADF819
:10122000000048208DF8030069460348FFF77CFE64
:1012300008BD0000000430000008014000BFFEE7C8
:101240007047000070B5002100230F22C47804B35A
:10125000154C246804F4E064C4F5E064210AC1F18B
:101260000403CA40447804FA03F18478144021430B
:1012700009010E4C0678A155047804F01F050124DD
:10128000AC4005786D11AD0005F1E025C5F80041D1
:1012900009E0047804F01F050124AC40044D0678F1
:1012A000761145F8264070BD0CED00E000E400E04A
:1012B00080E100E002490143024A116070470000EA
:1012C0000000FA050CED00E070B50646002415E0BC
:1012D00004F1B001C8B200F031FA012000F02EFA9A
:1012E000102000F02BFA002504E0304600F036FA1A
:1012F000681CC5B2802DF8DB601CC4B2082CE7DB8B
:1013000070BD000008B50121042000F0ABFA4FF4D5
:101310004070ADF8000010208DF8030003208DF818
:10132000020069460448FFF7FFFD4FF44071024890
:10133000FFF7DDFE08BD00000008014010B51422D3
:101340000021084600F0AAF814220021102000F025
:10135000A5F814220021602000F0A0F84048007891
:10136000012814D11C220021202000F097F81D2212
:101370000021302000F092F82C220021402000F0C3
:101380008DF82D220021502000F088F813E00A2269
:101390000021202000F082F80B220021302000F0F4
:1013A0007DF82C220021402000F078F82D22002129
:1013B000502000F073F80A220221002000F06EF89D
:1013C0000B220221102000F069F8022325A2194601
:1013D000202000F03DF9022323A21946482000F006
:1013E00037F901220221502000F058F802231EA2F2
:1013F0001946602000F02CF902231BA21946682030
:1014000000F026F91C220421002000F047F81D22DC
:101410000421102000F042F8022312A2042120200F
:1014200000F016F9022310A20421482000F010F960
:1014300001220421502000F031F802230AA20421E5
:10144000602000F005F9022307A20421682000F0C3
:10145000FFF8022305A20621184600F0F9F810BD96
:10146000300000203A2000002000000056616C3A55
:101470000000000070B504460D4605F1B001C8B289
:1014800000F05CF9102141EA141000F057F904F063
:101490000F0141F0010000F051F970BD2DE9F0415C
:1014A00080460E46174600247D0131464046FFF730
:1014B000E1FF00BF06E00D49485D00F04FF96D1CEB
:1014C000601CC4B2102CF6DB701CC1B24046FFF7A2
:1014D000D1FF002406E00549485D00F03FF96D1C8E
:1014E000601CC4B2102CF6DBBDE8F081520C002069
:1014F0002DE9FF4706468846154699460024ADB9B2
:101500004B462A464146304600F042F801240AE0A4
:10151000062101FB0461C8B24B466FF00F02414641
:1015200000F036F8641C052CF2DB2EE00BE00A20FC
:1015300095FBF0F100FB11504DF824000A2095FBBB
:10154000F0F085B2641C0A2DF1DA4DF824502746DC
:10155000002418E0381B0AD5062101FB0461C8B23B
:101560004B466FF00F02414600F012F80AE0391BBB
:101570005DF82120062101FB0461C8B24B464146BB
:1015800000F006F8641C052CE4DBBDE8FF870000D2
:101590002DE9F04706460F4690469946002500245F
:1015A000B9F1010F03D0B9F1020F49D11AE008F1E6
:1015B0001000C5B27E2E02DD0026781CC7B2394667
:1015C0003046FFF757FF002409E005EB45011E4AAE
:1015D00002EB4101085D00F0C1F8601CC4B2062CAA
:1015E000F3DB2DE008F11000C5B2782E02DD0026F5
:1015F000781CC7B239463046FFF73CFF002407E0AD
:1016000004EB0511114A505C00F0A8F8601CC4B24C
:10161000082CF5DB781CC1B23046FFF72BFF002405
:1016200008E004EB05110831084A505C00F096F818
:10163000601CC4B2082CF4DB06F10800C6B200BF7F
:1016400000BFBDE8F0870000402F00086E310008A1
:101650002DE9F0470646894617469A464FF000089E
:1016600000240025BAF1010F03D0BAF1020F5ED1B8
:1016700025E020E0785D203800F0FF087E2E04DDB4
:10168000002609F1010000F0FF0949463046FFF746
:10169000F1FE002409E008EB4801264A02EB410173
:1016A000085D00F05BF8601CC4B2062CF3DBB01DD3
:1016B000C6B2681CC5B2785D0028DBD137E032E0E5
:1016C000785D203800F0FF08782E04DD002609F14F
:1016D000010000F0FF0949463046FFF7CBFE002429
:1016E00007E004EB0811144A505C00F037F8601C66
:1016F000C4B2082CF5DB09F10100C1B23046FFF796
:10170000B9FE002408E004EB081108310A4A505CD5
:1017100000F024F8601CC4B2082CF4DB06F10800C9
:10172000C6B2681CC5B2785D0028C9D100BF00BF31
:10173000BDE8F087402F00086E31000810B5044660
:10174000FFF7DCFC782000F0CDFC002000F0CAFCA4
:10175000204600F0C7FCFFF7EDFC10BD10B50446B5
:10176000FFF7CCFC782000F0BDFC402000F0BAFC74
:10177000204600F0B7FCFFF7DDFC10BD10B5FFF709
:10178000C1FD642000F0D8FDAE20FFF7D7FF002098
:10179000FFF7D4FF1020FFF7D1FF4020FFF7CEFF67
:1017A0008120FFF7CBFFC820FFF7C8FFA120FFF77C
:1017B000C5FFC820FFF7C2FFA620FFF7BFFFA82084
:1017C000FFF7BCFF3F20FFF7B9FFD320FFF7B6FFBD
:1017D0000020FFF7B3FFD520FFF7B0FF8020FFF711
:1017E000ADFFD920FFF7AAFFF120FFF7A7FFDA200E
:1017F000FFF7A4FF1220FFF7A1FFDB20FFF79EFFFA
:101800004020FFF79BFF2020FFF798FF0220FFF703
:1018100095FF8D20FFF792FF1420FFF78FFFA42084
:10182000FFF78CFFA620FFF789FFAF20FFF786FFA9
:101830000020FFF749FD00210846FFF71BFE10BD01
:101840007047000029B1064AD2690243044BDA61AD
:1018500004E0034AD2698243014BDA617047000019
:101860000010024029B1064A92690243044B9A6172
:1018700004E0034A92698243014B9A617047000079
:101880000010024030B500210022002400232D4D1D
:101890006D6805F00C0121B1042905D0082923D178
:1018A00005E0294D056022E0274D05601FE0254D2C
:1018B0006D6805F47012234D6D6805F480340225BF
:1018C00005EB92421CB9214D554305600BE01D4DBF
:1018D0006D6805F400351DB11C4D5543056002E0EF
:1018E000194D5543056002E0174D056000BF00BF6C
:1018F000144D6D6805F0F0010909154D6B5C056824
:10190000DD4045600F4D6D6805F4E061090A104D3A
:101910006B5C4568DD4085600A4D6D6805F460517B
:10192000C90A0B4D6B5C4568DD40C560054D6D68AF
:1019300005F44041890B074D6B5CC568B5FBF3F5B9
:10194000056130BD0010024000127A0000093D0020
:101950004C0000205C00002030B503460C461546C4
:10196000002207E0184600F008F824F812009B1C3B
:10197000501C82B2AA42F5DB30BD01460888704790
:101980002DE9F05F80468A461746B8F1006F02D312
:101990003348804501D3BDE8F09FFFF769FAA8F10D
:1019A000006B4FEA9B25CBF34809C9F50074A742A9
:1019B00000DC3C464DE04FF0006101EB85208A14CD
:1019C0002849FFF7C9FF00260BE009EB060025496F
:1019D00031F810004FF6FF71884200D003E0701C10
:1019E00086B2A642F1DB00BFA6421BDA4FF00061CF
:1019F00001EB8520FFF7D2F9002608E03AF816003F
:101A000006EB0901174A22F81100701C86B2A642A3
:101A1000F4DB4FF0006101EB85208A14114900F0DE
:101A200023F804E022465146404600F01DF8A74244
:101A300000D10FE06D1C4FF000090AEB440AA044EE
:101A4000381B87B2B7F5007F02DD4FF4007400E069
:101A50003C46B0E700BFFFF7E1F900BF9BE700009D
:101A600000000108141900202DE9F04105460E463A
:101A700017464FF00408002408E036F814102846F2
:101A8000FFF7D6F98046AD1C601C84B2BC42F4DB83
:101A9000BDE8F081704710B500F002F810BD0000FD
:101AA0000CB50020019000903348006840F480306D
:101AB0003149086000BF3048006800F400300090F1
:101AC0000198401C0190009818B90198B0F5A06FDA
:101AD000F1D12948006800F4003010B101200090D5
:101AE00001E0002000900098012843D123480068BD
:101AF00040F01000214908600846006820F003000B
:101B000008600846006840F0020008601A48406813
:101B1000194948600846406848600846406840F4F3
:101B2000806048600846406820F47C1048600846A1
:101B3000406840F4E81048600846006840F0807053
:101B4000086000BF0C48006800F000700028F9D061
:101B50000948406820F0030007494860084640688B
:101B600040F00200486000BF0348406800F00C00ED
:101B70000828F9D10CBD00000010024000200240EE
:101B800070B506460C461546FEF722FF5420FEF7B8
:101B9000F1FEFEF765FF18B1FEF73EFF012070BDB4
:101BA0003046FEF7E7FEFEF75BFF2046FEF7E2FE5B
:101BB000FEF756FF18B1FEF72FFF0120EFE728468A
:101BC000FEF7D8FEFEF74CFF18B1FEF725FF012007
:101BD000E5E7FEF721FF0020E1E7042808D14FF0F8
:101BE000E021096941F004014FF0E022116107E0B2
:101BF0004FF0E021096921F004014FF0E02211616A
:101C00007047704710B51348006840F00100114953
:101C1000086008464068104908400E494860084678
:101C200000680E4908400B4908600846006820F427
:101C3000802008600846406820F4FE0048604FF4A9
:101C40001F008860FFF727FF4FF00060044908601D
:101C500010BD0000001002400000FFF8FFFFF6FE7C
:101C600008ED00E04FF08040008A00F0010040B134
:101C700008480078012804D107480068401C06493C
:101C800008604FF08040008A20F001004FF0804152
:101C90000882704714000020180000207FB5054618
:101CA0000C4601210846FFF7CDFDADF80850ADF810
:101CB00004400020ADF80A00ADF8060001A94FF07D
:101CC000804000F085F801221146900700F077F877
:101CD0001C208DF8000000208DF801008DF8020016
:101CE00001208DF803006846FFF7ACFA0121880750
:101CF00000F059F87FBD00000C48008800F001009A
:101D000060B10B480078012805D10A480068401CE2
:101D10000849086002E0002006490860034800887E
:101D200020F00100014908807047000010080040C1
:101D30001C000020200000207FB505460C46012134
:101D40000420FFF77FFDADF80850ADF804400020F7
:101D5000ADF80A00ADF8060001A9104800F038F807
:101D6000012211460D4800F02AF801210B4800F02D
:101D700017F81E208DF8000002208DF801000320C6
:101D80008DF8020001208DF803006846FFF75AFA2B
:101D90000121024800F007F87FBD00000008004064
:101DA000CA430282704721B1028842F001020280D8
:101DB00004E002884FF6FE731A40028070471AB1A1
:101DC00083890B43838102E083898B43838170473E
:101DD000002202881D4B98420ED01D4B98420BD01A
:101DE000B0F1804F08D01B4B984205D01A4B984257
:101DF00002D01A4B984204D14FF68F731A404B8889
:101E00001A43174B984207D0164B984204D04FF60E
:101E1000FF431A40CB881A4302808B8883850B8846
:101E200003850A4B98420BD0094B984208D00E4BC1
:101E3000984205D00D4B984202D00D4B984201D1EB
:101E40000B7A03860123838270470000002C014037
:101E5000003401400004004000080040000C004035
:101E600000100040001400400040014000440140C8
:101E70000048014010B540F225510C4800F047F8E9
:101E800090B10A4800F0FEF8C4B20948094909882F
:101E9000445408480088401C0649088008460088C9
:101EA000C72801DD0020088010BD00000038014077
:101EB0004E1200201C12002010B540F22551064899
:101EC00000F025F838B1044800F0DCF8C4B221462F
:101ED000014800F0DCF810BD0044004021B18289C7
:101EE00042F40052828104E082894DF6FF731A4069
:101EF0008281704702460020B1F5007F00D100BF0B
:101F000013880B400BB1012000E00020704770B532
:101F10000246002400230025002040F66A16B14244
:101F200000D100BFC1F3421501F01F03012606FADC
:101F300003F3012D02D19689334006E0022D02D130
:101F4000168A334001E0968A33400C12012606FAC5
:101F500004F41688344013B10CB1012000E00020D5
:101F600070BDF0B50346002400260025002040F691
:101F70006A17B94200D100BF1846C1F3421401F0FC
:101F80001F06012707FA06F5012C01D10C3004E0E9
:101F9000022C01D1103000E014301AB107682F4331
:101FA000076002E00768AF430760F0BD2DE9F04726
:101FB00086B005460E460024A24600BFA146002773
:101FC000B08900B100BF2F462C8A4CF6FF70044048
:101FD000F08804432C82AC894EF6F3100440B0889C
:101FE00031890843718908430443AC81AC8A4FF6B8
:101FF000FF400440B0890443AC8201A8FFF742FCD3
:102000001F48874202D1DDF810A001E0DDF80CA0E6
:10201000A88900F4004040B10AEBCA0000EB0A10A6
:1020200031684900B0FBF1F807E00AEBCA0000EBA9
:102030000A1031688900B0FBF1F86420B8FBF0F0B9
:1020400004012009642101FB1089A88900F40040E3
:1020500040B1322000EBC900B0FBF1F000F0070006
:10206000044308E0322000EB09106421B0FBF1F0DA
:1020700000F00F0004432C8106B0BDE8F08700009B
:102080000038014001468888C0F308007047C1F35A
:1020900008028280704700BFFEE770B504460D4617
:1020A00029462046FFF7F3FF00BF80212046FFF7B7
:1020B00021FF0028F9D070BD70B506460C460025FA
:1020C00000BF615D3046FFF7E8FF6D1C605D0028D2
:1020D000F7D100BF40213046FFF70CFF0028F9D0B0
:1020E00070BD000070B5044600251DE004F08000BE
:1020F00018B101201349086002E00020114908606E
:10210000012000F03FF901200E49091F086000F08E
:1021100039F900200C49C1F8A001012000F032F982
:102120006006040E681CC5B2082DDFDB01200549DE
:10213000091F086000F026F900200349C1F8A0013A
:1021400070BD0000A4012142000021420FB4084BE1
:1021500010B504A902AA039800F01CF8044602A9CD
:10216000002000F0C1F8204610BC5DF814FB000010
:10217000E922000802E008C8121F08C1002AFAD1AB
:1021800070477047002001E001C1121F002AFBD1F7
:10219000704700002DE9FF4F89B09B46044600259B
:1021A00006E025280BD05A460B999047641C6D1CFD
:1021B00020780028F5D10DB02846BDE8F08F002723
:1021C000B8460122474900E0074314F8013F203B8D
:1021D00002FA03F00842F7D120782E2819D114F81A
:1021E000010F47F004072A280ED06FF02F02207845
:1021F000A0F1300109290CD808EB880102EB41015C
:1022000000EB0108641CF2E70A98641C50F8048B88
:102210000A9020780028CED0642808D0692806D0FB
:1022200075281ED05A460B9990476D1C58E00A99A4
:102230004FF00A0901C90A91002802DA40422D2113
:1022400002E0390504D52B218DF82010012103E08F
:10225000F90704D02021F7E78A4608AE0DE00021F7
:10226000FAE70A994FF00A0901C90A91F7E74946C6
:10227000FDF7F5FF303106F8011D0028F7D1ADEB71
:10228000060000F12009780701D44FF00108C84585
:1022900002DDA8EB090000E000208046002706E0F0
:1022A00008A85A46C05D0B9990476D1C7F1C574586
:1022B000F6DB04E030205A460B9990476D1CB8F1CC
:1022C0000001A8F10108F5DC05E016F8010B5A46FB
:1022D0000B9990476D1CB9F10001A9F10109F4DCDB
:1022E000641C65E7092801000A68531C0B60107024
:1022F0007047000010B56FF00400FFF76EFC0A484D
:1023000000680A49B0FBF1F00949087008460078F6
:1023100000EB4001C1EBC0104FF6FF7101EAC000B5
:102320000449088010BD00003800002000127A0027
:102330001E120020201200200146114A12884A4332
:102340004FF0E0235A6100229A611A46126942F066
:1023500001021A6100BF4FF0E022106900F0010293
:102360001AB100F48032002AF5D04FF0E022126951
:1023700022F001024FF0E0231A6100229A617047B7
:10238000201200200146114A12784A434FF0E02300
:102390005A6100229A611A46126942F001021A61DA
:1023A00000BF4FF0E022106900F001021AB100F402
:1023B0008032002AF5D04FF0E022126922F00102AB
:1023C0004FF0E0231A6100229A6170471E1200202C
:1023D0002DE9F0474FF063094FF400517148FEF7C3
:1023E0007BFE10B90120BDE8F087FE216D48FEF7A5
:1023F00080FE6C48FEF76CFE00F0FE05FE2D23D03B
:102400000A20FFF799FFFE2D16D005F0F004702C7E
:102410000ED0B02C09D0D02C04D0E02C0BD14FF032
:10242000000908E04FF0010905E04FF0020902E061
:102430004FF0030900BF00BF00BF5A48FEF748FE37
:1024400000F0FE00FE28F8D1FD215648FEF751FEAF
:102450005448FEF73DFE00F0FD06FD2E23D00A2075
:10246000FFF76AFFFD2E16D006F0F004702C0ED098
:10247000B02C09D0D02C04D0E02C0BD14FF00409A3
:1024800008E04FF0050905E04FF0060902E04FF0C3
:10249000070900BF00BF00BF4248FEF719FE00F069
:1024A000FD00FD28F8D1FB213E48FEF722FE3D4805
:1024B000FEF70EFE00F0FB07FB2F23D00A20FFF7EC
:1024C0003BFFFB2F16D007F0F004702C0ED0B02C81
:1024D00009D0D02C04D0E02C0BD14FF0080908E033
:1024E0004FF0090905E04FF00A0902E04FF00B092F
:1024F00000BF00BF00BF2B48FEF7EAFD00F0FB0065
:10250000FB28F8D1F7212748FEF7F3FD2548FEF711
:10251000DFFD00F0F708B8F1F70F24D00A20FFF72D
:102520000BFFB8F1F70F16D008F0F004702C0ED0A6
:10253000B02C09D0D02C04D0E02C0BD14FF00C09DA
:1025400008E04FF00D0905E04FF00E0902E04FF0F2
:102550000F0900BF00BF00BF1248FEF7B9FD00F031
:10256000F700F728F8D1B9F1100F19D2DFE809F018
:10257000180818180A0C0E18101214181818181623
:10258000022030E704202EE706202CE705202AE76A
:10259000082028E7032026E7092024E7072022E770
:1025A000002020E700080140FFF72CFBFFF7A2FE08
:1025B0004FF4A060FEF77EFE4FF4E13000F070FCB7
:1025C00041F61F416320FFF769FB40F2CF216320F2
:1025D000FFF7B2FBFEF792FDFFF7D0F8FDF7CEFE56
:1025E000FEF7F2FDFEF790FA4FF4165000F002FCF1
:1025F000FCA1FE48FFF760FD0320FFF79DFEFEF7FC
:102600001DF9FEF791F87E20FEF75CFAF8490860A4
:10261000FDF7D0FE0020FEF757FEF548006845F2B2
:102620004941884221D0F3A1F048FFF745FD16E06B
:102630000223F3A200210846FFF70AF80223F5A2BD
:1026400019460020FFF704F80223F6A20421002017
:10265000FEF7FEFF7E20FEF735FAE5490860E44804
:10266000006845F249418842E2D1FEF767FE052045
:10267000FFF762FEEFA1DD48FFF71EFD79E3FFF7EC
:10268000A7FEEF49087008460078002875D0084674
:1026900000780A2872D2DFE800F071053F52647EAC
:1026A00096AFFEFDE748007810B90120E5490870B3
:1026B000E448007801282ED1E3480068B0F5967F01
:1026C00029D90120E14908700020DE490870DE495F
:1026D00008600223DEA200210846FEF7B9FF0223AC
:1026E000DBA219460020FEF7B3FF0223D8A2042183
:1026F0000020FEF7ADFF0223D5A206210020FEF741
:10270000A7FF0223D7A200212020FEF7A1FF4FF44C
:102710007A70FFF711FE01E1D548007801280AD14F
:10272000D4A1B248FFF7C8FC0020D1490870D449B1
:102730000870D44908700120D3490870EEE0CC48F5
:10274000007868B9D1480078012802D1D0490870D2
:1027500006E00120C6490870B6A1A448FFF7ACFC0A
:10276000DCE0C348007808B9012000E00020C94936
:102770000978012903DD012102E0D3E0CDE0002149
:10278000084020B1C3480078401EC24908700020AC
:10279000BC490870C2E0B648007808B9012000E0E2
:1027A0000020BC490978AA2901DC012100E00021B0
:1027B000084020B1B7480078401CB6490870002096
:1027C000B0490870AAE0AA48007848B90120AF498A
:1027D0000870B1490870B1A18448FFF76DFC05E0AD
:1027E0000120A74908700020A74908700120A549C9
:1027F0000870FDF7DFFD91E0022395A20021084655
:10280000FEF726FF022392A219460020FEF720FFC2
:1028100002238FA204210020FEF71AFF02238CA2BC
:1028200006210020FEF714FF1E2200211820FEF7CB
:1028300035FE1F2200212820FEF730FE2022002135
:102840003820FEF72BFE212200214820FEF726FE2D
:10285000222200215820FEF721FE232202212820D7
:10286000FEF71CFE242202213820FEF717FE252247
:1028700002214820FEF712FE262204212820FEF71E
:102880000DFE272204213820FEF708FE282204210D
:10289000482001E031E020E0FEF700FE2922062179
:1028A0002820FEF7FBFD2A2206213820FEF7F6FD40
:1028B0002B2206214820FEF7F1FDFDF77BFDFDF7F9
:1028C00079FD41F28830FFF737FDFDF773FDFEF724
:1028D00035FD01206C49087020E06548007840B95A
:1028E0006C4800780A2804DD6A4800780A3869498B
:1028F000087000206349087010E05D48007840B916
:1029000064480078A02804DC624800780A306149F5
:10291000087000205B49087000E000BF00BF002085
:102920004749087046480078002859D14748007840
:10293000012812D1002045490870524908705AA157
:102940002A48FFF7B9FBFDF735FDFDF733FDFDF72D
:1029500031FDFDF72FFDFEF739F94D4800780128CC
:102960003FD154A12148FFF7A7FB022338A2002141
:102970000846FEF76DFE022335A219460020FEF739
:1029800067FE022332A204210020FEF761FE02232B
:102990002FA206210020FEF75BFE152202210C204B
:1029A000FEF77CFD162202211C20FEF777FD172280
:1029B00002212C20FEF772FD182202213C20FEF796
:1029C0006DFD032202214C20FEF768FD1922022131
:1029D0005C20FEF763FD022339A219466C2071E0EA
:1029E000C7E1CCE041463A323800000000440040E4
:1029F0002800002041373A303030313900000000E3
:102A000048617665206E6F2046444332323134216E
:102A100000000000506C6561736520636F6E6E6529
:102A200063740000697420636F72726563746C79FB
:102A30002100000041373A303030313400000000CE
:102A4000240000201400002018000020370000207F
:102A50002020202020202020202020202020202076
:102A600000000000436C6561726564210000000095
:102A70003000002041373A3030303137000000005C
:102A800032000020310000201D0000203300002013
:102A900035000020260000203400002041373A3065
:102AA000303032300000000041373A3030303138B9
:102AB0000000000041373A3030303135000000006E
:102AC0003F000000FEF7C4FD1A2206212020FEF779
:102AD000E5FC162206215020FEF7E0FC0120A54966
:102AE000087026E0FFF774FCA349087008460078D8
:102AF00004280DD11A2206212020FEF7CFFC162231
:102B000006215020FEF7CAFC01209A49087010E007
:102B10009948007805280CD1152206212020FEF7BF
:102B2000BDFC1B2206215020FEF7B8FC0020914975
:102B30000870914800780628D4D18E480078012882
:102B40000AD1FEF751F8FDF735FC01208B490870DA
:102B500000208B49087007E0AFF228118948FFF781
:102B6000ABFA002085490870002087490870824927
:102B70000870FEF7E3FB002084490870F9E00120AB
:102B8000FDF796FD824948600846406881498842C1
:102B900004D87F4840688049884225D20020FEF74B
:102BA00093FB082200213020FEF778FC0922002147
:102BB0004020FEF773FC79A17248FFF77DFA06E02A
:102BC0000120FEF774F972494860FDF7F3FB704885
:102BD000406870498842F3D86D4840686E49884221
:102BE000EED3FEF7ABFBC4E069494868FDF7F6FB9E
:102BF00002236D4A06212220FEF72AFD5F48007855
:102C0000C8BB6A480078012811D1012168480078C2
:102C1000401E684A11540120FEF749F964490978B9
:102C2000491E654A42F8210000206049087060484A
:102C30000078FDF75BFC0223604A19463020FEF75E
:102C400007FDFEF77BFB142204217020FEF726FC13
:102C50004E48007808B1012000E0002000F1120287
:102C600002217020FEF71AFC022355A20421302015
:102C7000FEF7EEFC7DE0FFE752480078012805D121
:102C8000022351A204213020FEF7E2FC4F480078D5
:102C9000012855D14E49087000204A49087001208A
:102CA000FEF705F90446FEF761FA4A49086001207B
:102CB00036490870022342A204213020FEF7C8FCE6
:102CC0003248007808B1012000E0002000F1120233
:102CD00004217020FEF7E2FB3E480068FDF706FC89
:102CE0000223364A04213020FEF7B2FC0020274997
:102CF0000870364908700223AFF2AC220621FEF7B5
:102D0000A7FC022334A206210020FEF7A1FC3548CF
:102D100035A102683548FFF719FA0223334A062124
:102D20005020FEF795FC022331A206216C20FEF70D
:102D30008FFC0020264908704FF47A70FFF7FCFAE8
:102D4000FEF7FCFA142202217020FEF7A7FB0F48C1
:102D5000007808B1012000E0002000F112020421F7
:102D60007020FEF79BFB022315A219463020FEF7C8
:102D70006FFC84E436000020240000203000002096
:102D800033000020004400403500002031000020C6
:102D900030120020005A6202C0E1E40041373A30AC
:102DA0003030313300000000401200203400002099
:102DB00026000020181300206C160020121200209C
:102DC000202020001D0000203F3F3F003200002057
:102DD0001C0000202C0000205465737454696D653C
:102DE0003A0000002000002025640000241200208A
:102DF0006D73000010B586B0044601210420FEF773
:102E000031FD01214804FEF71DFD4FF40040ADF8EF
:102E1000000004208DF8030069461F48FEF784F87F
:102E20004FF48040ADF8000003208DF80200182018
:102E30008DF8030069461848FEF776F802940020E2
:102E4000ADF80C00ADF80E00ADF81000ADF81400B0
:102E50000C20ADF8120002A91048FFF7A7F80122D4
:102E600040F225510D48FFF77CF801210B48FFF790
:102E700035F84FF4E060FEF71DFA26208DF80400C7
:102E800000208DF8060001208DF8070001A8FEF74C
:102E9000D9F906B010BD0000000801400044004010
:102EA00010B586B00446012144F20400FEF7DAFCB6
:102EB0004FF40070ADF8140003208DF816001820B0
:102EC0008DF8170005A91C48FEF72EF84FF4806016
:102ED000ADF8140004208DF8170005A91648FEF778
:102EE00023F825208DF8000003208DF801008DF8CF
:102EF000020001208DF803006846FEF7A3F9019453
:102F00000020ADF80800ADF80A00ADF80C00ADF8EF
:102F100010000C20ADF80E0001A90848FFF746F894
:102F2000012240F225510548FFF71BF80121034813
:102F3000FEF7D4FF06B010BD000801400038014084
:102F40000000000000000000002F0000000007004B
:102F5000070000147F147F1400242A7F2A120062C5
:102F60006408132300364955225000000503000071
:102F700000001C224100000041221C000014083EF9
:102F800008140008083E0808000000A060000008BF
:102F90000808080800006060000000201008040213
:102FA000003E5149453E0000427F400000426151D1
:102FB0004946002141454B31001814127F1000276B
:102FC00045454539003C4A4949300001710905032E
:102FD00000364949493600064949291E000036365F
:102FE00000000000563600000008142241000014C2
:102FF000141414140000412214080002015109069F
:1030000000324959513E007C1211127C007F49491F
:103010004936003E41414122007F4141221C007F50
:1030200049494941007F09090901003E4149497A5E
:10303000007F0808087F0000417F410000204041D8
:103040003F01007F08142241007F40404040007F44
:10305000020C027F007F0408107F003E4141413E88
:10306000007F09090906003E4151215E007F0919D0
:1030700029460046494949310001017F0101003FCD
:103080004040403F001F2040201F003F4038403F4D
:1030900000631408146300070870080700615149B1
:1030A000454300007F41410000552A552A55000044
:1030B00041417F00000402010204004040404040C2
:1030C000000001020400002054545478007F48445A
:1030D000443800384444442000384444487F003891
:1030E0005454541800087E0901020018A4A4A47CBA
:1030F000007F080404780000447D40000040808484
:103100007D00007F102844000000417F4000007CCB
:1031100004180478007C08040478003844444438D7
:1031200000FC242424180018242418FC007C080423
:10313000040800485454542000043F444020003CFC
:103140004040207C001C2040201C003C4030403C83
:10315000004428102844001CA0A0A07C0044645413
:103160004C4414141414141418245A5A241800002B
:10317000000000000000000000000000000000004F
:1031800000F80000000000000033300000000010D4
:103190000C06100C0600000000000000000040C0FB
:1031A0007840C0784000043F04043F0404000070ED
:1031B00088FC08300000001820FF211E0000F008E5
:1031C000F000E018000000211C031E211E0000F08A
:1031D0000888700000001E212324192721101016D2
:1031E0000E000000000000000000000000000000D1
:1031F00000E0180402000000000718204000000250
:103200000418E000000000402018070000004040C3
:1032100080F0804040000202010F01020200000025
:1032200000F0000000000101011F01010100000089
:1032300000000000000080B07000000000000000EE
:103240000000000000000001010101010101000077
:10325000000000000000003030000000000000000E
:10326000000080601804006018060100000000E003
:1032700010080810E000000F102020100F000010B0
:1032800010F8000000000020203F20200000007007
:1032900008080888700000302824222130000030FF
:1032A0000888884830000018202020110E000000F7
:1032B000C02010F8000000070424243F240000F878
:1032C0000888880808000019212020110E0000E05D
:1032D000108888180000000F112020110E000038FF
:1032E0000808C83808000000003F00000000007017
:1032F000880808887000001C222121221C0000E0A0
:1033000010080810E0000000312222110F00000018
:1033100000C0C000000000000030300000000000CD
:10332000008000000000000080600000000000003D
:1033300080402010080000010204081020004040D6
:103340004040404040000404040404040400000819
:1033500010204080000000201008040201000070CE
:1033600048080808F0000000003036010000C030B6
:10337000C828E810E0000718272423140B000000D9
:10338000C038E0000000203C23020227382008F863
:10339000888888700000203F202020110E00C03057
:1033A000080808083800071820202010080008F82E
:1033B00008080810E000203F202020100F0008F827
:1033C0008888E8081000203F20202320180008F8F3
:1033D0008888E8081000203F200003000000C0306B
:1033E00008080838000007182020221E020008F8EC
:1033F00008000008F808203F210101213F200008B3
:1034000008F8080800000020203F202000000000ED
:103410000808F8080800C08080807F00000008F8D5
:1034200088C028180800203F20012638200008F80E
:10343000080000000000203F20202020300008F875
:10344000F800F8F80800203F003F003F200008F88F
:1034500030C00008F808203F200007183F00E010A7
:1034600008080810E0000F10202020100F0008F8B6
:1034700008080808F000203F210101010000E010C9
:1034800008080810E0000F18242438504F0008F8EE
:10349000888888887000203F2000030C302000704E
:1034A0008808080838000038202121221C0018084C
:1034B00008F8080818000000203F2000000008F865
:1034C00008000008F808001F202020201F000878AE
:1034D000880000C83808000007380E010000F8080E
:1034E00000F80008F800033C0700073C0300081838
:1034F00068808068180820302C03032C302008389E
:10350000C800C83808000000203F20000000100854
:103510000808C8380800203826212020180000009C
:1035200000FE020202000000007F40404000000C4C
:1035300030C000000000000000010638C00000029A
:103540000202FE000000004040407F00000000003A
:10355000040202020400000000000000000000005D
:103560000000000000008080808080808080000259
:103570000204000000000000000000000000000045
:103580008080808000000019242222223F2008F839
:10359000008080000000003F112020110E0000007C
:1035A000008080800000000E11202020110000000B
:1035B00000808088F800000E112020103F200000BD
:1035C000808080800000001F2222222213000080C1
:1035D00080F0888888180020203F2020000000000C
:1035E000808080808000006B94949493600008F841
:1035F000008080800000203F210000203F200080CC
:103600009898000000000020203F202000000000CB
:1036100000809898000000C08080807F000008F83B
:10362000000080808000203F24022D302000000810
:1036300008F8000000000020203F202000008080CB
:10364000808080808000203F20003F20003F8080DD
:10365000008080800000203F210000203F200000EB
:10366000808080800000001F202020201F0080809C
:1036700000808000000080FFA12020110E000000CB
:10368000008080808000000E112020A0FF808080BC
:1036900080008080800020203F2120000100000069
:1036A000808080808000003324242424190000803E
:1036B00080E0808000000000001F2020000080804B
:1036C000000000808000001F202020103F2080800C
:1036D00080000080808000010E300806010080809C
:1036E0000080008080800F300C030C300F000080C1
:1036F0008000808080000020312E0E3120008080EC
:1037000080000080808080818E701806010000801B
:103710008080808080000021302C22213000000039
:103720000000807C020200000000003F40400000DA
:103730000000FF00000000000000FF000000000289
:10374000027C800000000040403F000000000006B6
:10375000010102020404000000000000000000005B
:10376000002C150100342001006C280100382F01C5
:103770000018350100E43A010010400100904401B6
:1037800000E0480100AC4C010020500100605301F2
:10379000008056010044590100C85B0100505E01E1
:1037A00000706001009062010078640100606601B1
:1037B00000F06701009C690100386B0100746C0126
:1037C00000AC6D01002C6F0100307001005C7101D4
:1037D000006472010070730100547401005475019B
:1037E000003876010004770100B87701009C780169
:1037F0000041790100F07901008C7A0100547B01CD
:1038000000D87B0100707C01000C7D0100847D01EB
:1038100000187E0100907E0100187F0100847F0166
:1038200000F87F01005C800100CC8001003881013C
:1038300000A88101001082010069820100AC8201B0
:10384000000083010070830100C483010010840123
:10385000006C840100AC8401000C8501004C8501E2
:103860000080850100DC850100188601006086016A
:103870000098860100D88601001087010054870156
:10388000008C870100BC870100048801003088019A
:103890000070880100A8880100D488010004890113
:1038A00000348901006C890100A0890100D48901DC
:1038B00000008A0100248A0100488A0100708A0100
:1038C00000A08A0100D08A0100F88A0100208B0143
:1038D00000448B01006C8B0100958B0100B48B01BF
:1038E00000D48B0100008C0100148C0100408C017D
:1038F00000648C0100848C0100A08C0100BC8C0150
:1039000000DC8C0100008D01001C8D0100348D0154
:1039100000588D0100708D01008C8D0100B08D016B
:1039200000C08D0100DC8D0100F48D01F80C8E01CA
:1039300000208E01003C8E0100548E0100788E0123
:1039400000908E0100A08E0100BC8E01D0CF8E01B0
:1039500000E48E0100008F0100148F0130308F01D0
:103960005C418F0100508F0100648F01007C8F014A
:1039700000948F0100A88F0100C08F0100CC8F013F
:1039800000E08F0148F48F0100049001001C9001B9
:103990000038900100449001005C900100689001A3
:1039A0000074900100849001389B900100A8900160
:1039B00000BC900100C8900118D8900100E490016B
:1039C00000F89001D40A910100149101CC1F9101DB
:1039D00060309101903D91010048910100589101A2
:1039E00030649101D0789101008891010094910197
:1039F000009C9101C8AC910100C4910100D09101DB
:103A000000DC910100F49101310000002C3A000823
:103A100000000020241200001C0300085444000889
:103A200024120020F40E000084210008021A000174
:103A3000C20109A2FF1C7004A24A041E600802030E
:103A400004060708090C6110A005020406083340AB
:103A5000076666181866663F8007F008040408F0D9
:103A60001C90070708101008072DB0040808FC8CEC
:103A7000800610101F10104C80073804040484784E
:103A80001090071814121110181080060484844432
:103A9000383F90070C101010110EC0A004C0201861
:103AA000617008030212121F12121FC007FC444467
:103AB00044840440A1A0C007F08844444880C093D7
:103AC000100F30A0060404C4340CFEB21FCFC3385C
:103AD00044A0C30E11A012F8E0968820B405000996
:103AE0001111209004E01C707F7408101E11010158
:103AF000131C212204C092B820C21FC017E0184036
:103B000083041CFF31E081F0B40404FC04A0E14014
:103B100088082020C0F8C020202A200401000705C2
:103B2000812113E03C0385601004021F0203513D14
:103B30001411001000E81F262021222224E423086B
:103B400020100813FC0717240440FF3FDC22240147
:103B50002007FC22222223223A2101300442827FC4
:103B6000081202432424444424FF140024A47F8424
:103B700004FC00C0000088894A29180E0A094888F8
:103B80004838010300404042CCC121E14604E31023
:103B90000C3F108840231901010911233010043E05
:103BA00022E25C163E6439D310088141310F418115
:103BB000417A180E0F40807F000040422410FF0021
:103BC0008400127F04101B0400222212120AFE42FB
:103BD000270A1222324A424200001715D55557557E
:103BE0007D041004D5151730400540407F55011263
:103BF0007F0C100D0040221408F402445454547FEA
:103C000004200644000844825D1007FF1515155571
:103C10009560140E002028AA6C28382FA8A8ECAABA
:103C2000284230040202111A10061414141011E074
:103C3000500A202020FF2022149010A0500A40405B
:103C400020130C142241F8A0011E40200400222C55
:103C500042532826402407028242221A0745514037
:103C60001C04020CC05E031308FF0436F860640EE7
:103C70007F804121110D030D112141818140151AD1
:103C80006EFEF30315401A60BF21C615DA140B301F
:103C9000AC633004A4643C27E463116F16672130E1
:103CA0000B20110D41817F010509302010082018DB
:103CB000084848487F0442082020051200FE4201BF
:103CC0003EFE49043005FE929292042D160415CF53
:103CD000140C25140C04FF040C1425244430100982
:103CE000049392969A92FA940716FA10180E40408E
:103CF000472424140CFF0404244424B218058080B3
:103D00004020AB7C08C304081020408004038D9D34
:103D100004B240010D11D7048208013D5904B101DC
:103D200019FC82840111E0C22001495A71041D0A64
:103D30000520057F2824232519CF36226011E8238A
:103D4000C27EEE2AC2AF218F337847953920100EFC
:103D50001010D0FF9014E4AFA4A4A4AFE460170443
:103D6000036C100B894B2A1A0E1A2A4B88802022CA
:103D700090011C041010FF12041216902005206000
:103D8000203F991DA40354042040F8A02009FC24DE
:103D9000A4242222A362F0200D201F20584750485F
:103DA0004542454850F01405FE0202F2734404F205
:103DB00002026F1C057F20202752037C052720204C
:103DC0007FE00476FF1E72409B411235E019161108
:103DD000465404625AC6E0040B1140308F80432CD5
:103DE000102C438050A736365E2DAF033005C2B28B
:103DF0008E820119D05005080402016E4A404F849A
:103E00000510600418B118048181417F1B09073D2A
:103E100010051121C1017A1405FAAAABAAFA2804E7
:103E2000F20302004C0E00888B48281A0B08084841
:103E3000884A3B9D04557D5DDF0319101F1806A2BB
:103E4000062C044080403F04200A080888C8A8982F
:103E50008FE8880115E22B0201B929BA000521106B
:103E6000201F000138061088C43340BF2005C84811
:103E70004840405C06FF00020A3284043D9D05690B
:103E8000425EF8DB0569445DE40572F8015120717A
:103E9000016D7C0622103E5C041020C07E0519CC0A
:103EA0003D80055E039C0623E0F03E63F0E02023A6
:103EB000070F3E330F0720160329500BFF1189050A
:103EC000C300E000F0008300093A004428FF11AA73
:103ED000440001540B830138448292927401839B05
:103EE00010067C44C7017D01910555B69201029DE3
:103EF0000406013C016D40069D4806F20101CE001A
:103F0000E803200400006D01200400006001711529
:103F100001620122DB0101150722DA012004000001
:103F2000D80115D021010115072280010533AF22E8
:103F300006010118071004E66620076286157286DE
:103F40001C228601100A80808686068686C0C00CE8
:103F500000061C0606D030764D2107092F501F6041
:103F60001C43061C10010200C41820029E63B20EFE
:103F700000FF818171073C048040302909CC0BFF90
:103F80000023EAAABFAAEA033F5A0A0920A9653218
:103F9000051B3A58040E0C08405DC10A10070100C9
:103FA00081808081021572B1171D1908F70C0EDF90
:103FB0000214C001700A00001E21404050215E081A
:103FC0000928324005FFFFC1C10401232D1C1580C3
:103FD000FCF3EFF3FC80FF80EEEEEEF5FBFF9CBE02
:103FE000B6B68897071EE03D041F10E0AF082C040A
:103FF000102020730A4F101067043C0420203F92C9
:10400000091E709904100B887000003028242221AA
:104010003008100508888848081E18BF063D630A46
:104020001D7F042DF9072C07070424243F24CE0408
:104030003D28054004001921202C05E01088884AFD
:104040000B430F11103C06380808C838C90B3D9EB9
:104050000940040070886080071C222121221C90E6
:104060005C0700312222110F40061EFC45074C065A
:10407000FE8283828000081D70061C062000010E4F
:1040800030C0061E027E09133E80D61804A0908818
:10409000871C0600004382428D092C05FF40210643
:1040A000D2074DE0063D2D067DC0078C047F201011
:1040B000E2071C049052341B071C06345280708F98
:1040C000C108180A0800829A566322528E570C06BD
:1040D0003F330C334080C0093DA0078E1000073DE0
:1040E000A0078E43000741201D81075C06E42422BF
:1040F00023E2C007100F83601F80412618264180ED
:1041000000908887FD3E8083071D84074C11008046
:104110006018070830004045594141514D40800A20
:104120001E3E66062C055724548C80072C087E40C2
:104130003F2222000121091EFE480B4180400A80D7
:104140004828090E08284888805301807F15303C94
:104150000B020CE04020F84F4849FE60092F040490
:10416000550A1EFF7D0811471E225C0B1C046002CD
:10417000CC13071E1E360B223ED0100404047E3ED4
:104180001408834D51215149877035603407044428
:10419000645C47F4203D4008152E4DF00A2E441073
:1041A00009100CFF1050445465C644645444401830
:1041B0000F44827F0182824A562322524E82026F2E
:1041C000100DF01F10F000808282E2928A86502C3F
:1041D0000622150816617F077D5E08437F4901317D
:1041E000111C058141211D590A23FF89011D600A07
:1041F0001D910A1D920A3C0912FA062222424282AD
:104200003B0C2D6D0D1E45B10C3EFCA9039C04809A
:10421000C060E90D0C0710000103070D11FE052118
:10422000272F3018620D0C08290103060C0C060319
:104230007E06013DA01C0460F807450C2D460C4E7F
:104240003E5B042C08FF2011090503FF9907162087
:10425000902C0584E41C07C30C1C04A46424210BCB
:104260004D40087DC20C1DAF033C04FF1090030BB2
:104270001C07F292929E800057081F01805F0B344A
:1042800004FC4447021EFFF90342B60112800C20D1
:104290000BFF7EBEDEE2DEBE7E007601101C7E7E5F
:1042A000FFFFFD7D7DBDDDED05F9DDDDBDBD7DFFE4
:1042B000FFFEFEFF03BBBBBBBA0412030E1AFF00D6
:1042C0001E8C030A1EF2FD092EF8F60839002C0890
:1042D00047300F10270047E00C1D600C43BEAA01B9
:1042E0003EBED00A10048080AF0C12FF103EAF58C3
:1042F000054C06E000FF1020210C52F8E02D250DA2
:104300001D210C2E31200C1D7B0E1E9CDD032FF475
:1043100082DE0321301DCD083E063A0D1B0204E863
:10432000114F1EEE7B092C09E88F088878484E4013
:10433000C208167F0C1C047F0081F7055F3041B076
:104340000B6C0501E21CE0CD051DCF0B2E0CD9082E
:104350002C04030C30D00B0D1E000B100B4850E248
:104360001400209A423E82E21D59032C0744442542
:1043700024140D400C2F1524400C7C192024AC75FE
:10438000A6342CA4A09E82829EA0200049492452DB
:10439000897F0598C00315202C0720908E8888FF00
:1043A000220A3680204DF00F35E1140A00047454BF
:1043B0005556547404441F22DA2F073C0C10115137
:1043C000917D0B090800FF08420F240502020AEA4A
:1043D0002C15341FEA0AA00C1C0F824A2A1E0B4A15
:1043E0008A7A02FA4B4A4AFAF10B1D9A0B1C06FF15
:1043F0001414807EFF033FF111920F4AFD3F2F44BA
:10440000FC87062DC00C4C08504844C3444850C09B
:104410000C5C0440221AE00E4C040A1260D80673A9
:104420007F800620090050484641404053062C0535
:1044300041464850A0033D810425781F8463CE0C7B
:104440003DA10414070300808442218A0D3F600CC3
:044450000110010056
:04000005080000ED02
:00000001FF
